:020000040800F2
:1000000000000120C5020008CB020008CF02000852
:1000100041030008450300088D03000800000000AC
:10002000000000000000000000000000D5030008F0
:10003000D903000800000000DD030008210E0008BD
:10004000F1030008F1030008F1030008F1030008C0
:10005000F1030008F1030008FD0800081909000871
:10006000F1030008F1030008F1030008F1030008A0
:10007000F1030008F1030008F1030008F103000890
:10008000F1030008F1030008F1030008000000007C
:10009000000000000000000000000000F103000864
:1000A000F1030008F1030008F1030008F103000860
:1000B000F1030008F1030008F1030008F103000850
:1000C000F1030008F1030008F1030008110E000815
:1000D000F103000879120008F10300080000000095
:1000E000F1030008F1030008F1030008000000001C
:1000F000000000000000000000000000F103000804
:1001000000000000F1030008F1030008F1030008FB
:1001100000000000000000000000000000000000DF
:1001200035080008F1030008F1030008F103000896
:10013000F1030008000000000000000000000000C3
:10014000000000000000000000000000F1030008B3
:10015000F1030008F1030008F1030008F1030008AF
:10016000F1030008F1030008000000000000000097
:10017000000000000000000000000000000000007F
:1001800000000000F1030008000000000000000073
:10019000F103000800B583B000F0BAF9384B394AD2
:1001A0001360394A1360394900E02146384B9942BF
:1001B0000BD20A684B6801F10C0488689842F4D9A4
:1001C0001168196004330432F8E72E4B1A68314B7A
:1001D0009A4200D0FEE72C4B1A682F4B9A42F9D175
:1001E000274B2E4A13602E4A13602E4B05E0002049
:1001F000106004329342FAD80B462B4A934204D241
:10020000194651F8082B5B68F4E7244B1B6813B9B7
:10021000234B1B6803B1FEE700F086F9694601A88D
:1002200000F022F9214C224BE41AA4100025AC4224
:1002300014DC204C204BE41AA4100025AC4213DC43
:100240000099019800F062FF05461C4C1C4BE41A13
:10025000A410002C0EDC284600F0E2F8144B53F8F2
:10026000253098470135E2E7134B53F8253098477E
:100270000135E3E7013C124B53F824309847E8E797
:10028000BABADECA0000002074000020F40300089F
:100290000C04000878563412325476987800002006
:1002A000F40100200C0400081C0400081C040008D1
:1002B0001C0400081C0400081C0400081C0400089E
:1002C0001C04000808B5FFF765FF00BEFEE71EF03E
:1002D000040F0CBFEFF30880EFF309807146414A29
:1002E00010472DE9F04182B004468846124B5E6B00
:1002F0009F6B9D6A1B6B13F0020F03D00E4BDB6AE2
:10030000002B0CDB0D4800F0B7F8CDF800803B4621
:1003100032462946204600F00BF900BEFEE74BF6B8
:10032000AB6100F07FF90028ECD0034B4FF00042A6
:10033000DA6202B0BDE8F08100ED00E0941C000834
:1003400000BEFEE71EF0040F0CBFEFF30880EFF3D2
:1003500009807146244A10472DE9F04182B00446D5
:100360008846084B5E6B9F6B9D6A074800F084F8D7
:10037000CDF800803B4632462946204600F0D8F8AA
:1003800000BEFEE700ED00E0A41C00081EF0040F14
:100390000CBFEFF30880EFF309807146134A104752
:1003A0002DE9F04182B004468846084B5E6B9F6B96
:1003B0009D6A074800F060F8CDF800803B46324661
:1003C0002946204600F0B4F800BEFEE700ED00E04C
:1003D000B01C000800BEFEE700BEFEE700BEFEE760
:1003E00070470000E302000859030008A103000859
:0403F00000BEFEE766
:1003F4007CA3010800000020780000207CA30108F1
:10040400000000100000001078000020F801002017
:080414000000001000000010C0
:10042000FEE7000008B503460C4A12685AB10B4AB1
:100430001068033323F003030344094A934206D8A8
:10044000064A136008BD054A06491160EFE700F04F
:100450001DFF0C2303604FF0FF30F3E77C0000200A
:1004600000FC0020F801002001230360014B0B6019
:10047000704700BF040000200FB400B583B004AB88
:1004800053F8042B01938021064800F031FF002827
:1004900003DD0146034800F037F803B05DF804EBD4
:1004A00004B07047840000202DE9F04385B0044675
:1004B0000F4643560BB10E461EE004252846214642
:1004C000ABBE0446384605B0BDE8F08314F9011B05
:1004D00004AA1A4402F8101C0133AB42F6D304AA52
:1004E0001344002203F8102C4FF00408E94640465C
:1004F0004946ABBE8046761B002EE3D03546102E13
:1005000028BF10250023E8E708B5FFF7CDFF08BD99
:1005100008B500F097F8024A024B9A6008BD00BF88
:100520000000000800ED00E008B500F0ABF808BDE1
:10053000F8B504460D4617461E462748FFF79CFFB0
:1005400021682648FFF798FF61682548FFF794FF68
:10055000A1682448FFF790FFE1682348FFF78CFF6C
:1005600021692248FFF788FF61692148FFF784FF6E
:10057000A1692048FFF780FFE1691F48FFF77CFF72
:100580001E48FFF779FF29461D48FFF775FF1D4CF0
:10059000E16A1D48FFF770FF216B1C48FFF76CFFF5
:1005A000E16B1B48FFF768FF15F0800F0AD115F4C7
:1005B000004F0CD11748FFF75FFF06991648FFF769
:1005C0005BFFF8BD39461548FFF756FFEFE73146A8
:1005D0001348FFF751FFEDE7781B0008881B000860
:1005E000981B0008A81B0008B81B0008C81B0008BF
:1005F000D81B0008E81B0008F81B0008081C0008AE
:10060000141C000800ED00E0241C0008341C000845
:10061000441C0008741C00087C1C0008541C0008C2
:10062000641C000883691A888A4201D00020704740
:100630000268033A012A03D802338361012070471C
:10064000002070470C4B1A6842F001021A6000212A
:1006500099601A6822F0847222F480321A60074A84
:100660005A601A6822F480221A60D960044B4FF055
:1006700000629A60704700BF0038024010300024CA
:1006800000ED00E0224B9B6803F00C03042B14D018
:10069000082B16D01BB11F4B1F4A1A6002E01D4BDE
:1006A0001D4A1A601A4B9B68C3F303131B4AD15CA3
:1006B000184A1368CB4013607047164B184A1A60EB
:1006C000F0E7134B5A685B6803F03F0312F4800FA6
:1006D00013D0134AB2FBF3F20D4B5B68C3F38813DC
:1006E00003FB02F30A4A5268C2F30142013252008C
:1006F000B3FBF2F3074A1360D4E7074AB2FBF3F205
:10070000034B5B68C3F3881303FB02F3EAE700BF04
:10071000003802400C0000200024F400C01C000837
:1007200040787D0110B5044601220221002000F02E
:10073000F3F9204600F052FB10BD10B5044600222C
:100740000221104600F0E8F9204600F047FB10BDFA
:1007500008B501221146002000F0DEF9642000F007
:10076000B7FB00220121104600F0D6F9012000F06D
:10077000AFFB01221146002000F0CEF9642000F00A
:10078000A7FB00220121104600F0C6F9642000F00A
:100790009FFB01221146002000F0BEF9094800F03D
:1007A00097FB1120FFF7C9FF074800F091FB3A20A3
:1007B000FFF7C3FF0520FFF7B5FF2920FFF7BDFFB7
:1007C00008BD00BFC0D40100F049020038B505469D
:1007D0002A20FFF7B2FF0020FFF7A4FF0020FFF759
:1007E000A1FF0020FFF79EFF7F20FFF79BFF2B203C
:1007F000FFF7A3FF0020FFF795FF0020FFF792FF10
:100800000020FFF78FFF9F20FFF78CFF2C20FFF7C2
:1008100094FF00240AE035F81400000AFFF782FF75
:1008200015F81400FFF77EFF0134A4B2B4F5A04F11
:10083000F1D338BD08B5024B1B68984708BD00BF0F
:1008400004010020012910D049B1022913D00F4919
:100850000B68012202FA00F01843086070470B4A47
:10086000936843F001039360F1E7084AD36843F0CB
:100870000103D360EBE7054BDA6842F00102DA606E
:100880009A6842F001029A60E1E700BF003C014033
:10089000014B1860704700BF0801002004282AD8C7
:1008A000DFE800F0030C29162000134B1A6822F031
:1008B0000F021A601A681143196070470E4B1A68CC
:1008C00022F0F0021A601A6842EA011119607047BA
:1008D000094B1A6822F470621A601A6842EA012110
:1008E00019607047044B1A6822F470421A601A6843
:1008F00042EA0131196070470838014008B5044BDD
:100900001B689847034A536943F00103536108BDCC
:1009100008010020003C014008B5044B1B689847C3
:10092000034A536943F00103536108BD0C010020E1
:10093000003C014005282DD8DFE800F0030A11181B
:100940001F261548036849008A401A430260704711
:100950001248036849008A401A43026070471048F1
:10096000036849008A401A43026070470D480368D3
:1009700049008A401A43026070470B4803684900E7
:100980008A401A43026070470848036849008A4059
:100990001A430260704700BF00000240000402409A
:1009A00000080240000C024000100240001C0240FF
:1009B000052827D8DFE800F003090F151B2112488E
:1009C00043688A401A4342607047104843688A402F
:1009D0001A43426070470E4843688A401A43426097
:1009E00070470C4843688A401A43426070470A487F
:1009F00043688A401A4342607047084843688A4007
:100A00001A434260704700BF0000024000040240E9
:100A100000080240000C024000100240001C02408E
:100A200005282DD8DFE800F0030A11181F26154805
:100A3000836849008A401A4382607047124883687D
:100A400049008A401A438260704710488368490011
:100A50008A401A43826070470D48836849008A4083
:100A60001A43826070470B48836849008A401A43E2
:100A7000826070470848836849008A401A43826050
:100A8000704700BF0000024000040240000802401E
:100A9000000C024000100240001C024005282DD826
:100AA000DFE800F0030A11181F261548C368490043
:100AB0008A401A43C26070471248C36849008A409E
:100AC0001A43C26070471048C36849008A401A43FD
:100AD000C26070470D48C36849008A401A43C2602B
:100AE00070470B48C36849008A401A43C260704788
:100AF0000848C36849008A401A43C260704700BF73
:100B0000000002400004024000080240000C0240C5
:100B100000100240001C0240012A06D0052870D8AF
:100B2000DFE800F03A434C555E67052869D8DFE8F6
:100B300000F0030B131B232B32484369012202FAF6
:100B400001F11943416170472F484369012202FABC
:100B500001F11943416170472C480368012202FAF0
:100B600001F119430160704729484369012202FAE3
:100B700001F119434161704726484369012202FA95
:100B800001F119434161704723484369012202FA88
:100B900001F11943416170471A484369012202FA81
:100BA00001F123EA010141617047174843690122BD
:100BB00002FA01F123EA01014161704717484369D4
:100BC000012202FA01F123EA010141617047104854
:100BD0004369012202FA01F123EA010141617047F0
:100BE0000C484369012202FA01F123EA0101416143
:100BF000704709484369012202FA01F123EA010121
:100C000041617047000002400004024014080240A5
:100C1000000C024000100240001C0240000802408C
:100C2000072936D8052879D8DFE800F0030B131B15
:100C3000232B3B48036A890002FA01F11943016240
:100C400070473848036A890002FA01F119430162CA
:100C500070473548036A890002FA01F119430162BD
:100C600070473248036A890002FA01F119430162B0
:100C700070472F48036A890002FA01F119430162A3
:100C800070472C48036A890002FA01F11943016296
:100C9000704710B405280DD8DFE800F0030E1822C5
:100CA0002C361F4C606A01F007018B0002FA03F139
:100CB0000143616210BC70471A4C606A01F007037F
:100CC0009B0002FA03F101436162F3E7164C606A8C
:100CD00001F007039B0002FA03F101436162E9E7B7
:100CE000124C606A01F007039B0002FA03F1014312
:100CF0006162DFE70E4C606A01F007039B0002FAB5
:100D000003F101436162D5E70A48436A01F0070134
:100D1000890002FA01F119434162CBE7704700BF35
:100D2000000002400004024000080240000C0240A3
:100D300000100240001C024000F01F024009012385
:100D40009340024A42F82030704700BF00E100E0C3
:100D5000032822D8DFE800F0020A121A0F480368BD
:100D6000012202FA01F11943016070470C4803683F
:100D7000012202FA01F11943016070470948036832
:100D8000012202FA01F11943016070470648036825
:100D9000012202FA01F11943016070473038024024
:100DA000343802404038024044380240064B1A684A
:100DB00042F001021A609A6822F001029A609A6871
:100DC00022F002029A60704700380240024B40F263
:100DD00047321A60704700BF0030014010B504462A
:100DE000002211461046FFF797FE084BDC60074BC8
:100DF0009B6813F0800FFAD1012200210846FFF70B
:100E00008BFE024BD868C0B210BD00BF003001405D
:100E100008B5024B1B68984708BD00BFEC010020D5
:100E200008B5034B1B689847024B1B6808BD00BF01
:100E3000F001002010E000E0014B00221A60704732
:100E400010E000E00138044B586000229A601A68F4
:100E500042F001021A60704710E000E0044B1A688B
:100E600022F002021A601A6842EA400018607047D5
:100E700010E000E0024B1868C0F30040704700BF6C
:100E800010E000E0014B1860704700BFF001002047
:100E9000094B1A6822F001021A6000229A60400091
:100EA00058601A6842F001021A60044A11601A6818
:100EB00042F002021A60704710E000E0F0010020EA
:100EC000024B58689B68C01A4008704710E000E069
:100ED00010B50446FFF7B0FF0020FFF7BFFF4FF447
:100EE0007A7000FB04F0FFF7ADFFFFF7C3FF0028A7
:100EF000FBD010BD022805D0062801D0024870475B
:100F00000248704702487047001001400014014039
:100F100000440140164B40F283629A601A6942F421
:100F200080521A61DA686FF30002DA60DA6842F020
:100F30000402DA60DA6842F00802DA60DA6842F045
:100F40002002DA60DA686FF38612DA60DA686FF32B
:100F50008A22DA60DA686FF34922DA60DA686FF3BE
:100F60000C32DA60DA686FF3CF32DA60704700BFB4
:100F70000010014002280AD006280ED0012800D017
:100F80007047094AD36843F40053D3607047074A57
:100F9000D36843F40053D3607047054AD36843F4E1
:100FA0000053D360ECE700BF001001400044014053
:100FB0000014014008B5FFF79DFF4068C0B208BDAE
:100FC0000A4A13889BB20A49C95C0A4B1960138804
:100FD00001339BB2138013889BB244F27862934230
:100FE00000D07047014B00221A80FAE7DE01002092
:100FF000D0BC00081404024038B50E4B1B7883B1F6
:101000000D4C2578EDB2FFF75BFF0C4B43F8250044
:101010000B490C48FFF73CFF23780133DBB2237008
:1010200038BD07490748FFF733FF024B01221A700A
:10103000F6E700BFDA010020D901002010010020EE
:1010400071100008A0860100074B1B78DBB2452B0E
:1010500002D0462B04D07047044B01221A7070470F
:10106000024B01221A707047D8010020DC010020D9
:1010700008B5224B00221A70214B1A6842F20F73F6
:101080009A4205D91E4B1A6843F2B0639A4207D9B7
:1010900000231C4A13701A4A13601B4A137008BDC0
:1010A000012202210020FFF737FD002309E0012281
:1010B00002FA01F11148027822EA010202700133BA
:1010C000DBB2072B17D8194603F111000C4A52F86E
:1010D0002020B2F5FA6FEAD3094A52F8200040F610
:1010E000FC029042E3D801229A400448017811435F
:1010F000C9B20170E3E7FFF7A7FFC9E7D8010020F5
:1011000010010020DA010020D901002038B5FFF7D6
:101110004DFE01210020FFF71BFE00210846FFF7CE
:1011200017FE0E210320FFF713FE0C210320FFF70B
:101130000FFE04210320FFF70BFE022205210020F1
:10114000FFF7F8FB022207210020FFF7F3FB05223F
:1011500011460020FFF764FD052207210020FFF75C
:101160005FFD022209210020FFF7E4FB02220A2191
:101170000020FFF7DFFB072209210020FFF750FDC9
:1011800007220A210020FFF74BFD0124032C11DC6C
:10119000E5B2012229460020FFF7CCFB00222946B8
:1011A0001046FFF705FC002221461046FFF738FCE9
:1011B0000134EBE700220B211046FFF7BBFB0022B6
:1011C0000B211046FFF76AFCFFF700FEFFF7C0FA9D
:1011D000002410E0012221461046FFF7ABFB00225D
:1011E00021460120FFF7E4FB002221460120FFF702
:1011F00017FC0134E4B2072CECD91948FFF748FB7F
:1012000000210846FFF74AFB01210020FFF71AFBE7
:101210000620FFF791FD2520FFF78EFDFFF77AFEF0
:101220000120FFF7A7FEFFF707FE0E4B1B78002BF0
:10123000FBD00D48FFF7CAFAFFF7FEFD0B4B1B78FA
:10124000472BFBD10120FFF709FEFA20FFF7FAFD3B
:101250000748FFF717FE0748FFF7B8FAEEE700BFA9
:10126000F90F0008DC01002048030108DB01002021
:10127000C10F0008D01C000808B50120FFF79AFE36
:10128000014B187008BD00BFDB010020014B18683E
:10129000704700BF1000002030B5141E05469BB0FB
:1012A000184605DA8B232B604FF0FF301BB030BDA2
:1012B0004FF40273ADF80C3014BF04F1FF33234632
:1012C000029305934FF6FF7300910491ADF80E3031
:1012D00002461E9B6946284600F072F8431CBCBFBC
:1012E0008B232B60002CE1D0009B00221A70DDE7DD
:1012F00007B5009313460A46014603480068FFF706
:10130000CBFF03B05DF804FB100000202DE9F0478F
:101310008E689E4282460C469046994637D88A8906
:1013200012F4906F31D0256809696F1A656902233C
:1013300005EB450595FBF3F509F101033B449D429F
:1013400038BF1D46530530D5294600F07BFB0646C5
:1013500050B90C23CAF80030A38943F04003A3819D
:101360004FF0FF30BDE8F0873A46216900F0F8FA07
:10137000A38923F4906343F08003A3812661656110
:101380003E44ED1B2660A5604E464E4500D94E46B4
:1013900032464146206800F0EEFAA3689B1BA3602A
:1013A00023681E4426600020DCE72A4600F0A4FBE8
:1013B00006460028E2D12169504600F0F5FAC8E758
:1013C0002DE9F04F9DB0804603938B891D060C4696
:1013D00016460FD50B696BB9402100F033FB206036
:1013E000206128B90C23C8F800304FF0FF30C7E067
:1013F000402363610023099320238DF82930302393
:101400008DF82A304FF0010B37463D4615F8013B69
:101410000BB1252B3ED1B7EB060A0BD05346324613
:1014200021464046FFF772FF013000F0A480099B7F
:10143000534409933B78002B00F09D8000234FF02C
:10144000FF32CDE90523049307938DF853301A93A7
:101450002F46052217F8011B4F4800F031FA049B74
:10146000D0B9D90644BF20228DF853201A0744BFB3
:101470002B228DF853202A782A2A15D0079A2F4636
:1014800000200A25394611F8013B303B092B4DD984
:10149000B8B10FE02F46B8E73F4A801A0BFA00F0C8
:1014A000184304903D46D3E7039A111D1268039137
:1014B000002A01DB079204E0524243F00203079244
:1014C00004933B782E2B0CD17B782A2B33D1039BB2
:1014D0001A1D1B680392002BB8BF4FF0FF33023771
:1014E00005932E4D39780322284600F0E9F938B1EA
:1014F0004023401B03FA00F0049B0343013704938D
:10150000397827488DF8281006227E1C00F0D8F97B
:10151000002838D0234B13BB039B073323F007036A
:1015200008330393099B4B4409936DE705FB023293
:1015300001200F46A6E700230137059319460A2527
:10154000384610F8012B303A092A03D9002BC8D0AD
:101550000591C6E705FB012101230746F0E703AB30
:1015600000932246104B04A94046AFF30080B0F12F
:10157000FF3F8146D6D1A3895B063FF536AF099878
:101580001DB0BDE8F08F03AB00932246064B04A9C3
:10159000404600F081F8EAE748A301084EA301089D
:1015A00052A30108000000000D1300082DE9F047C8
:1015B00091461F468A680B69DDF820809342B8BFC8
:1015C0001346C9F8003091F8432006460C4612B184
:1015D0000133C9F800302368990642BFD9F80030BA
:1015E0000233C9F80030256815F0060507D104F16B
:1015F000190AE368D9F800209B1AAB4228DC94F85A
:1016000043302268003318BF012392062DD404F121
:10161000430239463046C047013020D02368E56890
:10162000D9F8002003F00603042B08BFAD1AA36805
:1016300022690CBF25EAE57500259342C4BF9B1AB9
:10164000ED184FF000091A344D451AD1002008E07A
:101650000123524639463046C047013003D14FF08E
:10166000FF30BDE8F0870135C3E7E1185A1C302090
:1016700081F84300224494F8451082F84310023365
:10168000C5E70123224639463046C0470130E6D03F
:1016900009F10109D8E700002DE9F04301F1430CFD
:1016A0000C46097E85B06E291746064698460C9A68
:1016B00000F0B38022D8632936D00AD8002900F080
:1016C000B980582900F0838004F1420584F8421063
:1016D00032E0642901D06929F6D120681368050633
:1016E00003F104012AD51B681160002B03DA2D22B7
:1016F0005B4284F843206F480A2239E0732900F0E6
:101700009D8008D86F2920D07029DDD1236843F04F
:101710002003236003E0752917D07829D4D17823DA
:1017200084F84530644855E01368191D1B68116042
:1017300004F1420584F8423001238CE01B681160FB
:1017400010F0400F18BF1BB2CFE713682568181DB3
:101750001060280601D51B6802E06806FBD51B88CF
:1017600054486F2914BF0A220822002184F843102C
:101770006568A560002DC0F29580216821F0040104
:101780002160002B3DD1002D40F08E806546082A57
:101790000BD12368DB0708D5236962689A42DEBF54
:1017A000302305F8013C05F1FF35ACEB050323615F
:1017B000CDF800803B4603AA21463046FFF7F6FEEF
:1017C00001304DD14FF0FF3005B0BDE8F08339480E
:1017D00084F84510136821681D1D1B6815600A06F2
:1017E0000BD5CA0744BF41F0200121601BB9226814
:1017F00022F0200222601022B7E74D0648BF9BB2BC
:10180000EFE76546B3FBF2F102FB1133C35C05F869
:10181000013D0B460029F5D1B9E7136825686169D8
:10182000181D106028061B6801D5196002E06A06C1
:10183000FBD51980002323616546B9E71368191D9C
:1018400011601D6862680021284600F039F808B16F
:10185000401B606063682361002384F84330A7E77E
:1018600023692A4639463046C0470130AAD023684A
:101870009B0713D4E068039B9842B8BF1846A3E7C0
:1018800001234A4639463046C04701309AD00135D7
:10189000E368039A9B1AAB42F2DCEBE7002504F104
:1018A0001909F5E7002BACD1037884F8423004F134
:1018B00042056CE759A301086AA301080000000073
:1018C00001F0FF01102A2BDB10F0070F08D010F8F1
:1018D000013B013A8B422DD010F0070F42B3F6D1F5
:1018E000F0B441EA012141EA014122F007047FF00E
:1018F00000070023F0E80256083C85EA010586EA65
:10190000010685FA47F5A3FA87F586FA47F6A5FAA0
:1019100087F68EB9EED1F0BC01F0FF0102F00702AC
:1019200032B110F8013B013A83EA010313B1F8D157
:101930000020704701387047002D06BF3546033838
:10194000073815F0010F07D1013015F4807F02BF71
:10195000013015F4C03F0130F0BC0138704700BFC2
:1019600010B5431E0A44914200D110BD11F8014B3D
:1019700003F8014FF7E7884210B501EB020307D8DF
:10198000421E99420AD011F8014B02F8014FF8E7C4
:101990008342F5D98118D21AD34200D110BD13F871
:1019A000014D01F8014DF7E738B50546002945D04E
:1019B00051F8043C0C1F002BB8BFE41800F0D2F81B
:1019C0001F4A1368104633B9636014602846BDE8A7
:1019D000384000F0C8B8A3420CD92168621893427D
:1019E00004BF1A685B68636004BF52182260046019
:1019F000ECE713465A680AB1A242FAD91968581896
:101A0000A0420BD120680144581882421960DDD1F0
:101A1000106852685A6001441960D7E702D90C2354
:101A20002B60D3E7206821188A4204BF11685268EE
:101A3000626004BF091821605C60C7E738BD00BF61
:101A4000E001002070B5CD1C25F0030508350C2DF4
:101A500038BF0C25002D064601DBA94203D90C2313
:101A60003360002070BD00F07DF8214A14682146E3
:101A700091B9204C23681BB9304600F063F8206010
:101A80002946304600F05EF8431C24D10C23336015
:101A9000304600F068F8E4E70B685B1B18D40B2BAA
:101AA0000FD90B60CD50CC18304600F05CF804F133
:101AB0000B00231D20F00700C31AD3D05A42E25076
:101AC000D0E78C424B6816BF636013600C46EBE7AF
:101AD0000C464968CCE7C41C24F00304A04205D09E
:101AE000211A304600F02EF80130CFD02560DBE718
:101AF000E0010020E4010020F8B5074614460E4638
:101B000021B91146BDE8F840FFF79CBF22B9FFF7A5
:101B10004BFF25462846F8BD00F026F8A0420FD21C
:101B200021463846FFF78EFF05460028F2D03146A1
:101B30002246FFF715FF31463846FFF735FFE9E744
:101B40003546E7E738B5064C0023054608462360CE
:101B5000FEF768FC431C02D1236803B12B6038BD3B
:101B6000E80100207047704751F8043C181F002B13
:101B7000BCBF0B58C0187047537461636B2066720A
:101B8000616D653A0A000000205230203D2020257A
:101B90003038580A00000000205231203D20202516
:101BA0003038580A00000000205232203D20202505
:101BB0003038580A00000000205233203D202025F4
:101BC0003038580A0000000020523132203D2025D4
:101BD0003038580A00000000204C52203D202025BB
:101BE0003038580A00000000205043203D202025B6
:101BF0003038580A0000000020505352203D202564
:101C00003038580A000000004653522F4641523ADD
:101C10000A0000002043465352203D202025303842
:101C2000580A00002048465352203D2020253038D5
:101C3000580A00002044465352203D2020253038C9
:101C4000580A00002041465352203D2020253038BC
:101C5000580A0000204D4D464152203D2025303885
:101C6000580A00002042464152203D2020253038AD
:101C7000580A00004D6973630A000000204C522F7F
:101C80004558435F52455455524E3D2025303858F3
:101C90000A0000005B486172644661756C745D0AFD
:101CA000000000005B4275734661756C745D0A004C
:101CB0005B55736167654661756C745D0A00000071
:101CC00000000000000000000102030406070809EC
:101CD000FFFFFFFFFFFFFFFFFFFFFFFFFFFFFFFF14
:101CE000FFFFFFFFFFFFFFFFFFFFFFFFFFFFFFFF04
:101CF000FFF7FFFFFFFFDFFFDFFFDFFFFFFFFFFF5C
:101D0000FFFFFFFFFFFFDFFFDFFFFFFFFFFFFFFF23
:101D1000FFFFDFF7DFFFFFFFDFFFDFFFFFFFFEFF5C
:101D2000FEF7FEFFDFFFBFFF9FFFBFFFFFFFFFF7D5
:101D3000FFE7FFE7FFEFFFF7FFFFDFFFBFFF5EFFFC
:101D4000DDFED9FDB5FCB2FBAEFA0CF2CBF1CBF95E
:101D5000ACF1ACF1EDF1AFFA92FB95FCBAFDDDFE12
:101D60005FFF9FFFDFFFFFFFFFF7FFEFFFE7FFE7EB
:101D7000FFF7FFFFBFFFBFFFDFFFFFFFFFF7FFF72B
:101D8000FFFFDFFF9FFF9FFFDFFFDFFFDFF7FFFFAB
:101D9000FFFFFFFFDFFFDFFFDFFFDFFFFFFFFFFFD3
:101DA000FFFFFFFFDFFFDFFFDFFFFFFFFFFFFFF7AB
:101DB000FFFFFFFFFFFFFFFFFFFFFFFFFFFFFFFF33
:101DC000FFFFFFFFFFFFFFFFFFFFFFFFFFFFFFFF23
:101DD000FFFFFFFFFFFFFFFFFFFFFFFFFFFFFFFF13
:101DE000FFFFFFFFFFFFFFFFFFFFFFFFFFFFFFFF03
:101DF000FFF7FFFFFFFFFFFFFFFFFFFFFFFFFFFFFB
:101E0000FFFFFFFFFFFFFFFFFFFFFFFFFFFFDFFF02
:101E1000BFFFDFFFFFFFBFFFFFFFFFFFDFFFFFFF92
:101E2000DFFFDFFFFFFFFFF7FFEFFFEFFFF7FFFF32
:101E3000BFFFBFFF9EFF3DFF39FED4EC8FDBACCA76
:101E400009C288C127C1E6C8C6D0A5D0A6D8C6E0B9
:101E5000A7E086D886D0C6D0E6C827C188C10AC206
:101E6000ACCA6FD3B4EC19FE3DFF9FFFBFFFBFFFAD
:101E7000DFFFDFFFFFF7FFF7FFF7FFF7DEFFFFFFF3
:101E8000FFFFDFFFFFFFFFFFBFFFFFFFFFFFDFFFE2
:101E9000DFFFFFFFFFFFFFFFFFFFFFFFFFFFFFFF72
:101EA000FFFFFFFFFFFFDFFFDFFFFFFFFFFFFFF78A
:101EB000FFFFFFFFFFFFFFFFFFFFFFFFFFFFFFFF32
:101EC000FFFFFFFFFFFFFFFFFFFFFFFFFFFFFFFF22
:101ED000FFFFFFFFFFFFFFFFFFFFFFFFFFFFFFFF12
:101EE000FFFFFFFFFFFFFFFFFFFFFFFFFFFFFFFF02
:101EF000FFFFFFFFFFFFFFFFFFFFFFFFFFFFFFFFF2
:101F0000FFFFFFFFFFFFFFF7FFF7FFF7FFFFDFFF19
:101F1000FFFFFEFFFFFFFFFFFFFFDFFFFFFFFFFFF2
:101F2000FFFFFFF7FFE7FFDFFFE7FFF7DEFF9EFFA3
:101F3000F9FD93FCEDE2A9C9E6C084C084C885D050
:101F4000A5D0A4D0A4D8C4D8C5E0C5E0A5E8A5E82C
:101F5000A5E8A5E8C5E0C5E0C4D8A4D8A4D0A4D01D
:101F6000A4D084C884C0E5B8A8C9CCDA72FCF8FD56
:101F70007EFFBEFFFEFFFFE7FFE7FFF7FFFFDFFF8C
:101F8000DFFFFFFFFFFFFFFFFFFFFFFFFFFFFFFF81
:101F9000DFFFFFFFFFFFFFF7FFF7FFFFFFFFFFFF81
:101FA000FFFFFFFFFFFFFFFFFFFFFFFFFFFFFFFF41
:101FB000FFFFFFFFFFFFFFFFFFFFFFFFFFFFFFFF31
:101FC000FFFFFFFFFFFFFFFFFFFFFFFFFFFFFFFF21
:101FD000FFFFFFFFFFFFFFFFFFFFFFFFFFFFFFFF11
:101FE000FFFFFFFFFFFFFFFFFFFFFFFFFFFFFFFF01
:101FF000DFFFFFFFFFFFFFFFFFF7FFF7FFFFFFFF21
:10200000FFFFFFFFFFFFFFFFFFFFFFFFFFFFFFFFE0
:10201000FEF7FEF7FFFFFFFFDFFFDFFFFFFFDFF74A
:10202000FFEFFFEFFFF7FFFFBEFF9AFE93F48CCAAE
:1020300047D1C5C864C885E085F085F885F864F0A7
:1020400085F0A5F0A4E8A4E8A4E8A4F084F064F086
:1020500063F083F0A4F0A4E8A3E8C4E8A4F0A4F03B
:1020600084F8A4F8A5F8A4F084E063C8C4C846D1F5
:102070006BC273FC9AFE9EFFDFFFDFF7FFF7FFF7EF
:10208000FFF7FFFFFFFFDFF7FFFFFFFFFEF7FEF7A2
:10209000FFFFFFFFFFFFFFFFFFFFFFFFFFFFFFFF50
:1020A000FFFFFFFFFFF7FFF7FFFFFFFFFFFFDFFF70
:1020B000FFFFFFFFFFFFFFFFFFFFFFFFFFFFFFFF30
:1020C000FFFFFFFFFFFFFFFFFFFFFFFFFFFFFFFF20
:1020D000FFFFFFFFFFFFFFFFFFFFFFFFFFFFFFFF10
:1020E000FFFFFFFFFFFFFFFFFFFFFFFFFFFFFFFF00
:1020F000BFFFDFFFFFFFFFF7FFF7FFF7FFFFFFFF68
:10210000FFFFFFFFFFFFFFFFFFFFFFFFFFFFFFF7E7
:10211000FEEFFEF7FEF7FFFFDFFFBFFF9FF7FFF7C2
:10212000FFF7FFFF5EFF57FDCEF228D985D865D8AF
:1021300085E085E8A5F085F045F044F865F864F899
:1021400064F084F084F084E884E885F085F084F01D
:1021500084F0A4F084F084E883E883E883F063F0FB
:1021600063F064F864F864F084F0A4F084E884E038
:10217000A5D085C8E7D08DF237FD5FFFDFFFFFF701
:10218000FFF7BFF7BFFFFFFFFFFFFEFFFEFFFEF7FA
:10219000FFF7FFFFFFFFFFFFFFFFFFFFFFFFFFFF57
:1021A000FFFFFFFFFFF7FFF7FFF7FFFFDFFFBFFFB7
:1021B000FFFFFFFFFFFFFFFFFFFFFFFFFFFFFFFF2F
:1021C000FFFFFFFFFFFFFFFFFFFFFFFFFFFFFFFF1F
:1021D000FFFFFFFFFFFFFFFFFFFFFFFFFFFFFFFF0F
:1021E000FFFFFFFFFFFFFFFFFFFFFFFFFFFFFFFFFF
:1021F000DFFFDFFFFFFFFFF7FFF7FFFFFFFFFFFF3F
:10220000FFFFFFFFFFFFFFFFDFFFFFFFFFFFFFF706
:10221000FFFFFFFFFFFFFFFFFFFFFFFFFFFFDFFFEE
:102220007FFFF6FC4CDAA7D025E004F045F865F80E
:1022300044F065F0A5F885F064E884E8A5E884E852
:10224000A4E8A5E8A5E8A4E8A4E8A5E8A5E8A5E829
:10225000A5E8A5E8A5E8A5E8A4E8A4F0A4F0A4E80A
:1022600084E8A4E884E884E8A4F0A5F864F044F0E5
:1022700064F065F045F045E0A6D00BD2D5FC7FFFB9
:10228000DFFFFFFFFFFFFFFFDFFFDFFFDFFFDFFFFE
:10229000FFF7FFFFFFFFDFFFFFFFFFFFFFFFFFFF76
:1022A000FFFFFFFFFFFFFFF7FFF7FFFFFFFFDFFF6E
:1022B000FFFFFFFFFFFFFFFFFFFFFFFFFFFFFFFF2E
:1022C000FFFFFFFFFFFFFFFFFFFFFFFFFFFFFFFF1E
:1022D000FFFFFFFFFFFFFFFFFFFFFFFFFFFFFFFF0E
:1022E000FFFFFFFFFFFFFFFFFFFFFFFFFFFFFFFFFE
:1022F000FFFFFFFFFFFFFFFFFFFFFFFFFFFFFFFFEE
:10230000FFFFFFFFFFFFFFFFFFFFFFFFFFFFFFFFDD
:102310009FFFDFFFDFFFDFFFDFF7FFFF3CFF15FD64
:10232000CAC9C6D044D885E8A5F0A4F084F064F00A
:1023300064F864F064F084E8A4E8C4E8C4E8A4E0C5
:10234000A4E884E8A4E8A4E8A4E8A4E8A4E8A4E84D
:10235000A5E8A5E885E8A4E8A4E884E884E8A4E87A
:10236000A4E0E5E8C4E8A4E884E864F064F065F873
:1023700064F884F084F0C5F0A5E865D8A6D0A9C9B2
:10238000F5FC1CFFDFFFDFFFFFFFDFFFDFFF9FFF2D
:10239000DFFFFFFFFFFFFFFFFFFFFFFFFFFFFFFF6D
:1023A000FFFFFFFFFFFFFFFFFFFFFFFFFFFFFFFF3D
:1023B000FFFFFFFFFFFFFFFFFFFFFFFFFFFFFFFF2D
:1023C000FFFFFFFFFFFFFFFFFFFFFFFFFFFFFFFF1D
:1023D000FFFFFFFFFFFFFFFFFFFFFFFFFFFFFFFF0D
:1023E000FFFFFFFFFFFFFFFFFFFFFFFFFFFFFFFFFD
:1023F000FFFFFFFFFFFFFFFFFFFFFFFFFFFFFFFFED
:10240000FFFFFFFFFFFFFFFFFFFFFFFFDFFFDFFF1C
:10241000DFFFBFFF9FFFDFFF9FFFB7FDCCD2A4B858
:1024200085E064F084F8A4E8A3E0C4D8E4E0C4E064
:10243000A4E883E8A3E8C4F0A3E8A3E8A3E8A3E83A
:10244000C4E8A3E8A3F0A3F0A3F083F083F0A4F022
:1024500085F084E884E884F084F084E884E8A4E8E3
:10246000A4E8A4E884E0A4E8C4E8A4E884E8A4E834
:10247000A4F0C4E8C3E0A3E0A4E884F064F0A5E01D
:10248000A4C08BCA76FD9EFFDFFFBFFFFFF7FFF7FB
:10249000DFFFDFFFFFFFFFFFFFFFFFFFFFFFFFFF8C
:1024A000FFFFFFFFFFFFFFFFFFFFFFFFFFFFFFFF3C
:1024B000FFFFFFFFFFFFFFFFFFFFFFFFFFFFFFFF2C
:1024C000FFFFFFFFFFFFFFFFFFFFFFFFFFFFFFFF1C
:1024D000FFFFFFFFFFFFFFFFFFFFFFFFFFFFFFFF0C
:1024E000FFFFFFFFFFFFFFFFFFFFFFFFFFFFFFFFFC
:1024F000FFFFFFFFFFFFFFFFFFFFFFFFFFFFFFFFEC
:10250000FFFFFFFFFFFFDFFFDFFFDFFFFFFFFFF743
:10251000FFF7DFF7BFFFBCFE70E3C6C044D0A5F0F5
:1025200084F0A3E8A3E8C3E8C3E8C4E0C4E0E4D8C7
:10253000E4D8E4D8C4E0A3E0A3E8A4F084F083E8FE
:10254000A3E8A3E8A3E8A3E8A3F0A3F083F083F053
:1025500084F084F0A4F0A4E8A4E884E8A4E8A4F05B
:1025600084E884F0A4F084E8A4E0C4E0E4E0E5D8E2
:10257000A4E8A4E8A3E8A3E8C3E8C3E8A3E883F0D9
:10258000A5F044D8A5C02FDB7BFEDFFFFFEFFFE700
:10259000FFFFFFFFDFFFDFFFDFFFFFFFFFFFFFFFAB
:1025A000FFFFFFFFFFFFFFFFFFFFFFFFFFFFFFFF3B
:1025B000FFFFFFFFFFFFFFFFFFFFFFFFFFFFFFFF2B
:1025C000FFFFFFFFFFFFFFFFFFFFFFFFFFFFFFFF1B
:1025D000FFFFFFFFFFFFFFFFFFFFFFFFFFFFFFFF0B
:1025E000FFFFFFFFFFFFFFFFFFFFFFFFFFFFFFFFFB
:1025F000FFFFFFFFFFFFFFFFFFFFFFFFFFFFFFF7F3
:10260000FFF79EEFDFFFBFFF9FFFFFFFFFEFFFDF43
:10261000DFFFBFFFF5EC48B144C065F064F863F834
:10262000A3E8E3E0E3E0A3E8A4F084F0A4E8A5E8ED
:10263000E4D0E4D8C4E0A4E884F084F084F084F02A
:10264000A4E8A4E0C4E0C4E0C4E0A4E0A4E8A3E8F3
:1026500084E8A4E8A4E0C4E0C4E0C4E0A4E0A4E802
:1026600084F084F085F084F0A4E8C5E0E5D8E5D0F6
:10267000A4E8A4E884F0A3E8C3E0E2E0E2E0A3E891
:1026800083F844F865F044C868B9D4EC9EFFDFFFD6
:10269000FFE7FFEFFFFFBFFF9FFFBFFFFFF7FFF762
:1026A000FFF7FFFFFFFFFFFFFFFFFFFFFFFFFFFF42
:1026B000FFFFFFFFFFFFFFFFFFFFFFFFFFFFFFFF2A
:1026C000FFFFFFFFFFFFFFFFFFFFFFFFFFFFFFFF1A
:1026D000FFFFFFFFFFFFFFFFFFFFFFFFFFFFFFFF0A
:1026E000FFFFFFFFFFFFFFFFFFFFFFFFFFFFFFFFFA
:1026F000FFFFDFFFFFFFFFFFFFFFFFFFFFF7FFF71A
:10270000FFF7FFFFDFFFBFFFDFFFBEFFFEF7FFF7B3
:1027100059FEEDDAC5B8C6D8A6F084F884F883F07F
:10272000A3E8C3E8C3E0C4E0A4E884F065F865F872
:10273000A5E8A5E8A5E864F064F064F065F085F02C
:1027400084E8A4E0C4E0C4E0C4E0C4E0E5E8E5E86F
:10275000C4E8C4E0C4E0C4E0C4E0C4E0A4E084E8A9
:1027600084F084F064F064F064F0A4E8A5E8C5E8BF
:1027700085F085E8A4E8C4E0C4E0C3E0C3E8A3E8CA
:1027800063F063F064F8A6F8A5E084B88CDAF9FD8C
:10279000FFF7FEF7DFFF9FFFBFFFDFFFFFFFFFF742
:1027A000FFF7FFF7FFFFFFFFFFFFFFFFFFFFFFFF49
:1027B000FFFFFFFFFFFFFFFFFFFFFFFFFFFFFFFF29
:1027C000FFFFFFFFFFFFFFFFFFFFFFFFFFFFFFFF19
:1027D000FFFFFFFFFFFFFFFFFFFFFFFFFFFFFFFF09
:1027E000FFFFFFFFFFFFFFFFFFFFFFFFFFFFFFFFF9
:1027F000FFFFFFFFDFFFDFFFFFFFFFF7FFF7FFFF39
:10280000DFFFDFFFBFF7FFF7FFFFDEFF9EFF96F55D
:1028100006E964E064E8A5F084E863E0A3E8A4E8DE
:1028200084F084F0A4E8C4E0C4E0A5E865F845F8C5
:1028300064F864F884F885F8A5F084F084F084E8FE
:1028400084F0A5E8A4F084F084E864E864E863E830
:1028500063E863E863E883E883E8A4F0A4E8A4F00D
:1028600083E883F0A4F0A4F0A4F883F863F043F0C5
:1028700065F085F0A5E0C4E0A4E084F084F084F085
:10288000A3E8C4E0A3E084E884F064F044E8A5F0A1
:1028900076ED9EFFBEFFFFFFFFFF9FF7DFFFBFFF4D
:1028A000FFFFFFF7FFF7FFFFDFFFDFFFFFFFFFFF88
:1028B000FFFFFFFFFFFFFFFFFFFFFFFFFFFFFFFF28
:1028C000FFFFFFFFFFFFFFFFFFFFFFFFFFFFFFFF18
:1028D000FFFFFFFFFFFFFFFFFFFFFFFFFFFFFFFF08
:1028E000FFFFFFFFFFFFFFFFFFFFFFFFFFFFFFFFF8
:1028F000FFF7FFFFDFFFDFFFFFFFFFFFFFF7FFFF38
:10290000DFFFDFFFFFF7FFEFFDEF9DFF31FC85B835
:1029100043F084F883F083E8E4F0C4E8A4E8C5F069
:10292000A4E8A4E8A4E8A4E0A4E885E885F065F8B4
:1029300084F883F883F083E8A3E8A3E8A4E8A4E894
:10294000A4E8A4F084F884F885F885F885F885F87B
:1029500085F885F884F864F884F883F8A4F0A3E88F
:10296000A3E8A3E8A2E0A2E882E882F082F883F874
:1029700065F085F085F084E884E884F084F0A4E8CC
:10298000C5E8C4E005E9E4E083E0A3F0A4F822F898
:1029900085B8D0F39DFFDDEFFFF7FFFFBFFFBFFF5F
:1029A000FFFFFFFFFFFFFFFFDFFFDFFFFFFFFFF77F
:1029B000FFFFFFFFFFFFFFFFFFFFFFFFFFFFFFFF27
:1029C000FFFFFFFFFFFFFFFFFFFFFFFFFFFFFFFF17
:1029D000FFFFFFFFFFFFFFFFFFFFFFFFFFFFFFFF07
:1029E000FFFFFFFFFFFFFFFFFFFFFFFFFFFFFFFFF7
:1029F000FFF7FFFFFFFFDFFFFFFFFFFFFFFFFFFF0F
:102A0000BFFF9FFFFFFFDEFF9DFF0CCB64C086F87A
:102A1000C4F083E8C4E8E4E883E083E8A5F084E850
:102A2000C4E0C4E0C4E0A4E884F084F084F0A4E846
:102A300083F083E8A3E8C3E8E4E0E4E0E4E005E150
:102A4000C4D8C4D8A4D864D843D043D043D043D04A
:102A500023D043D063D063D084D8A4D8C4D8A3D81B
:102A600004E1E4E0E3E0E3E0C3E8A3E883F083F01B
:102A700084F084F064F864F884F0A4E8C4E0A4E08E
:102A800063E084E863E0A3E005E1C3E062E0C4F052
:102A900065F8A5C8CBC25CFFFFFFDFFF9FFFDFFF2C
:102AA000DFFFFFFFFFFFFFFFDFFFFFFFFFFFFFF77E
:102AB000FFFFFFFFFFFFFFFFFFFFFFFFFFFFFFFF26
:102AC000FFFFFFFFFFFFFFFFFFFFFFFFFFFFFFFF16
:102AD000FFFFFFFFFFFFFFFFFFFFFFFFFFFFFFFF06
:102AE000FFFFFFFFFFFFFFFFFFFFFFFFFFFFFFFFF6
:102AF000FFFFFFFFFFFFFFFFFFFFFFFFFFFFFFFFE6
:102B0000FFFFDFFF9FFF7BFEC9C944C0C5E884F01B
:102B1000A4E0C4E0C4E0A4E884E8A4F0A5F0A4F034
:102B2000A4E8A4E8A4E8A4E884F0A4E8A4E8C4E045
:102B3000A4E8A4E8A4E8C5E8A4D884D0A4C0C4B894
:102B400046B9C8C18BCA0CD38EDB10EC72F492FC70
:102B500093FC72F411EC8FDB0DD38BCAE8C146B93C
:102B6000C5B8A4C084D0A4D8C5E8C5E8A4E8A4E842
:102B7000A4E8A4E8A4E8A4E8A4E8A4E8A4E0A4E8FD
:102B8000A5F0A5F084F0A4F0C5E8C4E0C4E0C4E07A
:102B9000A5F864E844C8CAC91AFE7FFFFFFFFFFF1B
:102BA000FFFFFFFFDFFFFFFFFFFFFFFFFFFFFFFF55
:102BB000FFFFFFFFFFFFFFFFFFFFFFFFFFFFFFFF25
:102BC000FFFFFFFFFFFFFFFFFFFFFFFFFFFFFFFF15
:102BD000FFFFFFFFFFFFFFFFFFFFFFFFFFFFFFFF05
:102BE000FFFFFFFFFFFFFFFFFFFFFFFFFFFFFFFFF5
:102BF000DFFFFFFFFFF7FFF7FFFFDFFFDFFFFFF75D
:102C0000FFE7FFF71AFEAAC905E066F884F0C3D80B
:102C1000C5E0A5E084E885F0A5E8A4E884E884E8B8
:102C200084F084F884F0A4E8C3E0C3E0C3E0C3E028
:102C3000A5F065E844E045E0C7E8EBF970FB94FCDB
:102C4000F9FDBBFE7DFFBDFFDDFFFDFFFEFFDDFFEC
:102C5000DFFFDFFFDEFFDEFF9EFF7EFFDCFE1AFEF2
:102C6000B5FC71FBEBF9C7E845E045E065E886E8AF
:102C7000C4E0E4E0E4D8E4D8C4E0A4E884F084F05C
:102C800064F084F085F065F065F085F0A5E8C5E0B6
:102C9000C3E064F066F806E86AC9F9FDFFFFFFE7E4
:102CA000FFF7DFFFDFFFFFFFFFF7FFF7FFFFDFFFAC
:102CB000FFFFFFFFFFFFFFFFFFFFFFFFFFFFFFFF24
:102CC000FFFFFFFFFFFFFFFFFFFFFFFFFFFFFFFF14
:102CD000FFF7FFFFDFFFFFFFFFF7FFEFFFF7FFFF4C
:102CE000FFFFFFFFFFFFFFFFFFFFFFFFFFFFFFFFF4
:102CF000FFFFFEFFFFFFFEF7FFFFFFFFDFFFBFFF4E
:102D0000BFFF98FDC6E003F8A3F0C2D8E4E084F06A
:102D1000C3F082E8A3F0C4E8A4D8A5D8C6E8A6F01A
:102D200085F064E0A5E0C5E884F064F864F823F079
:102D3000C7A8AAB14FCB56ED1CFFFFFFFFF7FFF767
:102D4000FFF7FFFFFFFFFFFFDFFFDFFFDFFFFFFFFB
:102D5000FFFFFFFFFFFFFFFFFFFFFFFFFFFFFFFF83
:102D6000FFFFFFFFDEFFFCFE56ED70CBCAB1E7A010
:102D700043F864F884F0A4F084E8A4E0A5E085E8D2
:102D800086F085E8C5D8C5D8A4E883F083F0C3E809
:102D900085F0E5E0C3D8A3F002F8C5E076FDBEFFFC
:102DA000BFFF9FFFFFFFFFFFFFF7FFFFFFFFFFFFDB
:102DB000FFFFFFFFFFFFFFFFFFFFFFFFFFFFFFFF23
:102DC000FFFFFFF7FFEFFFF7FFFFDFFFFFFFFFF75B
:102DD000FFFFFFFFDFFFFFFFFFFFFFF7FFF7FFFF33
:102DE000FFFFFFFFFFFFFFFFFFFFFFFFFFFFFFFFF3
:102DF000DFFFFFFFFFEFFFF7FFFF9FFFDFFFBFFFDB
:102E0000B9FDE7B885E8A4F083E804E9A3E0A4E805
:102E1000A2E8C3F083E864E8A5F0E6F0C5D884D85A
:102E2000A5E8C6F864F843F0A4E0A4C805C12AE206
:102E3000B5FC3AFE5EFF9FFFBEFFFFFFFFF7FFF707
:102E4000FFF7FFFFFFFFDFFFDFFFDFFFDFFFFFFF1A
:102E5000FFFFFFFFFFFFDFFFDFFFFFFFFFFFFFFFC2
:102E6000FFF7FFFFFFFFBFFF9FFF5EFF5BFEF6FC6C
:102E700029DA25C1A4C8A4D884F084F885F884E0B0
:102E8000A4D8E5E0A5E865F084F0A4E8A3E8A2E80A
:102E900085E884E0E4E883E0A4F0A5E8C5B877FD20
:102EA000BFFFFFFFBFFFDFFFFFF7FEEFFFFFBFFF2B
:102EB000FFFFFFFFFFFFFFFFFFFFFFFFFFFFDFFF42
:102EC000FFFFFFF7FFF7FFFFFFFFDFFFFFFFFFFF42
:102ED000FFFFFFFFDFFFFFFFFFFFFFFFFFFFDFFF42
:102EE000DFFFFFFFFFFFFFFFFFFFFFFFFFFFFFFF12
:102EF000BFFFFFF7FFE7FFEFDFFFDFFFDFFFD8FDDB
:102F000049C925E085E8A4E0C4E863E8C5F0A4E089
:102F1000E4E883E0A4E8A5F844F064E8C5E0E4E070
:102F200063E084F864F843E025C14DCBD7F59DFFFD
:102F30009EFF9EFFBEFFBEFFFFFFFFFFFFF7FFF7F5
:102F4000FFFFFFFFDFFFDFFFDFFFFFFFFFFFFFFFF1
:102F5000FFFFFFFFFFFFDFFFDFFFDFFFDFFFFFFF01
:102F6000FFFFFFF7FFF7DEFFBEFFBEFFBEFF7EFFE6
:102F7000BDFF18FE6EDB25C143D843F864F8C4E8F2
:102F800025E1A4D844E845F884F0A4E0C3E0A3E830
:102F9000C5E8A5F043E8C4E0C4E0C5F024E027C1DB
:102FA00056FDBEFFDFFFBFFFFFF7FFEFFFF7BFFFDD
:102FB000FFFFFFFFFFFFFFFFFFFFFFFFFFFFDFFF41
:102FC000DFFFFFFFFFFFFFFFFFFFDFFFFFFFFFFF51
:102FD000FFFFFFFFDFFFFFFFFFFFFFFFDFFFDFFF61
:102FE000DFFFFFFFFFFFFFF7FFFFFFFFFFFFFFFF19
:102FF000FFFFFFFFFFFFFFF7FFFFBDFF38FE27C109
:1030000044D886F885E8C5E8A5E884F0A4F0A3E0F4
:10301000A4E0C5E8A4E884E8A5F0A5F884F084F06D
:1030200005F162D0C3C0CBE2B7FD9EFFFFFFFFE713
:10303000DEFFFEFFFEFFFFFFFFF7FFEFFFF7FFFFE3
:10304000FFFFDFFFDFFFDFFFFFFFFFFFFFFFFFFFF0
:10305000FFFFFFFFFFFFFFFFDFFFDFFFDFFFFFFFE0
:10306000FFFFFFF7FFF7FFF7FFF7FEF7DEFFFEFFBB
:10307000FFEFFEFF9EFFF8FDECEAE4C8A3D0C4E832
:1030800063E884F0C5F8A5F084E8A4E8A4E8A4E027
:10309000A4E0A5F084F0A5E8A5E884E8A5F844E05C
:1030A00026C1F8FD9DFFFFFFFFF7FFF7FFFFDFFFE2
:1030B000FFFFFFFFFFFFFFFFFFF7FFFFFFFFDFFF48
:1030C000DFFFDFFFFFFFFFFFFFFFFFFFFFFFFFFF50
:1030D000FFFFFFFFFFFFFFFFFFFFFFFFDFFFBFFF60
:1030E000DFFFFFFFFFFFFFF7FFFFFFFFFFFFFFFF18
:1030F000FFF7BFFFBFFFFFFFFEFF79FEA7C943E059
:10310000A4F8A4E864E0A6F865F0E5F0A4E0A3E87C
:10311000C6E8A5E0A4E0C4E083E863F043F884F0E7
:1031200083C889CA95FD9DFF9EFFBEFFFFFFFFE795
:10313000FFF7FFF7FFF7FFF7FFF7FFFFFFFFDFFFE7
:10314000FFFFFFFFFFFFFFFFFFFFFFFFFFFFFFF797
:10315000FFF7FFFFFFFFFFFFFFFFFFFFFFFFFFFF87
:10316000FFFFFFF7FFF7FFF7FFF7FFF7FFF7FEEFB0
:10317000FFEFFFF7BEFF9EFF7DFFD5FDCACA82C0ED
:1031800063F043F863F0A3E0C4E884E885E806E967
:10319000A3E8A4E0E5F064F085F043E0A4E8C5F816
:1031A00064E067C138FEFFFFFFFFBFFFDFFFFFF7EF
:1031B000FFFFFFFFFFFFFFFFFFF7FFF7FFFFDFFF4F
:1031C000BFFFDFFFFFFFFFFFFFFFFFFFFFFFFFFF6F
:1031D000FFFFFFFFFFFFFFFFFFFFFFFFFFFFDFFF1F
:1031E000FFFFFFFFFFFFFFFFFFFFDFFFDFFFDFFF4F
:1031F000DFFFFFFFDFFFBEFFBBFE4ACA83D0E4F064
:1032000082D825F164F024F085F084E0C4E0C3E8BE
:1032100065D8A5E0A4E8A3E8C4F8A3F0A3E025C915
:1032200071F41BFFFEFFDFFFDFFFDFFFBEFFFFFFCD
:10323000FFF7FFF7FFFFFEF7DFF7FFFFFFFFFFFFDF
:10324000FFFFFFFFFFFFFFFFFFFFFFF7FFF7FFF7A6
:10325000FFF7FFF7FFF7FFFFFFFFFFFFFFFFFFFF96
:10326000FFFFFFFFFFFFFFFFDEF7FFF7FFF7FFF7AF
:10327000FFFFFFFFFFFFBFFFBEFFFEFF3BFF13FD92
:1032800066D163E0A3F0E4F883E8A4E8E6E864D854
:10329000A3E8C4E084E085F044F884F025F162D826
:1032A000A4F064D009C2BBFEDFFFFFFFFFFFFFFFFA
:1032B000DFFFDFFFDFFFFFFFFFFFFFF7FFFFFFFF86
:1032C000DFFFFFFFFFFFFFFFFFFFFFFFFFFFFFFF2E
:1032D000FFFFFFFFFFFFFFFFFFFFFFFFFFFFFFFFFE
:1032E000FFFFFFFFFFFFFFFFDFFFDFFFDFFFDFFF6E
:1032F000BFFFDFF7FFFF7EFF4CE285E0A3E8A1D030
:1033000003E162E084F865F0A5E8A4E0A4E0C3E08E
:10331000A5E0C5F043E864F8A4F862C869CA98FE5D
:10332000DDFFFFFFDFFFBFFFFFFFFFFFFFFFDFFF4F
:10333000FFFFFFFFFFFFFFFFFFFFFFFFDFFFFFFFBD
:10334000FFFFFFFFFFFFFFFFFFF7FFF7FFF7FFF7AD
:10335000FFFFFFFFFFFFFFFFFFFFFFFFFFFFFFFF7D
:10336000FFFFDFFFDFFFFFFFFFFFFFFFDFFFDEFFEE
:10337000DEFFFFFFFFFFFFFFFFFFFFFFDFFFBDFFE0
:10338000B8FECAD262C863F884F884E8C5E8A5F03C
:10339000C3E8C3E0A4E0A5F085F8A4F862E003E187
:1033A000C3D8E5F045E0EBD11DFFFFFFBEEFDFFF27
:1033B000DFFFDFFFDFFFDFFFFFFFFFFFFFFFFFFF9D
:1033C000FFFFFFFFFFFFFFFFFFFFFFFFFFFFFFFF0D
:1033D000FFFFFFFFFFFFFFFFFFFFFFFFFFFFFFFFFD
:1033E000FFFFFFFFFFFFFFFFDFFFDFFFDFFFFFFF4D
:1033F000DFFFDFF7BEFFB1EB25D824F883E803E158
:10340000C2D8C4F0A4F0A4E8A4E8A4E8A4E0E3E0EF
:10341000A4E863F0A5F844E8A5C810F49CFFFEFFFB
:10342000FFF7DFFFDFFFDFFFFFFFFFFFFFFFDFFF34
:10343000FFFFDFFFDFFFDFFFDFFFDFFFDFFFFFFF5C
:10344000FFFFFFFFFFFFFFFFFFFFFFFFFFFFFFFF8C
:10345000FFFFFFFFFFFFFFFFFFFFFFF7FFFFFFFF84
:10346000FFFFDFFFDFFFDFFFDFFFDFFFDFFFDFFF4C
:10347000FFFFFFFFFFFFFFFFDFFFDFFFDFFFFFF7C4
:10348000FEF7BDFF52FCC5D044E8A5F863F083F019
:10349000E3E0A3E0A4E8A4E884E884F0A4F0C3D8BF
:1034A000E3D884F045F825D82FDBBEFFFFFFDFFF10
:1034B000FFFFDFFFDFFFDFFFFFFFFFFFFFFFFFFF7C
:1034C000FFFFFFFFFFFFFFFFFFFFFFFFFFFFFFFF0C
:1034D000FFFFFFFFFFFFFFFFFFFFFFFFFFF7FFF70C
:1034E000FFF7FFFFDFFFDFFFFFFFDFFFFFFFFFFF54
:1034F000FFEFBFFF94FC85C885F044F883F0A3F08C
:10350000C4E883E8E5F083E884F0A4F083E0C4E055
:10351000A3F084F864E048D136FD9FFFFFF7FFF782
:10352000FFFFDFFFDFFFFFFFFFFFFFFFFFFFFFFFEB
:10353000FFFFFFFFDFFFDFFFDFFFDFFFFFFFDFFF3B
:10354000FFFFFFFFFFF7FFFFFFFFFFFFBFFFDFFFF3
:10355000BFFF9EFFDFFFFFFFFFFFFFFFFFFFFFFF3C
:10356000FFFFDFFFFFFFDFFFDFFF9FFFDFFFDFFF6B
:10357000FFFFFFF7FFF7FFFFFFFFDFFFFFFFFFFF8B
:10358000FFF7DFF7BFFF77FD68D144E083F8A3F0D2
:10359000C4E883E083E8C4F0A4E842E0E5F0A4E8EE
:1035A000C5F064F044F8A6F864C032F4BEFFFEEF44
:1035B000FFFFFFFFDFFFFFFFDFFFFFFFFFFFFFF763
:1035C000FFF7FFF7FFFFFFFFFFFFFFFFFFFFFFFF1B
:1035D000FFFFFFFFFFFFFFFFFFFFFFFFFFFFFFF703
:1035E000FFF7DFFFFFFFFFFFFFFFFFF7FFF7FFF72B
:1035F000FEFFF9FDC6C885E8A4E8C4F043E864F816
:1036000085F0C5E883E0C4F083F083E884F064F0DB
:10361000A3E8C4D8C8C919FEBFFFFFF7FFF7DFFF53
:10362000BFFFDFFFFEFFFEFFFFFFFFFFFFF7FFF71C
:10363000FFFFFFFFFFFFFFFFBFFFFFFFFFFFFFFFDA
:10364000FFFFFFFFFFFFFFFFDFFFDFFFDFFFBFFF2A
:103650009FFFBFFFBFFFBFFFFFFFFFFFFFFFFFFF9A
:10366000FFFFFFFFDFFFFFFFFFFFFFFFBFFFFFFFCA
:10367000FFF7FFF7FFF7FFFFFEFFFEFFFFFFDFFF94
:10368000DFFFBFFFDFF7DFFF5AFEE9D9C4D8A2E0B2
:1036900064F0A4F063E863E8A4F005F164E085F069
:1036A00024F085F884E864E8C6F8A6C896FDFEFF15
:1036B000DFEFFFF7FFFFFFFFDFFFFFFFFFFFFFFF72
:1036C000FFF7FFFFFFFFFFFFFFFFFFFFFFFFFFFF12
:1036D000FFFFFFFFFFFFFFFFDFFFFFFFFFFFFFFF1A
:1036E000FFFFBFFFDFFFFFFFFFF7FFF7FFF7FFF76A
:1036F000DCFEC9C1A6D8A5F083E0E4E8A5F085F01A
:1037000065F084E8A4E883E8C4F8A4F044F086F8FF
:10371000C3C0AAD21BFFDEFFFFFFDFFFDFFFBFFF3B
:10372000DFFFFFFFFEFFFEFFFFFFFFFFFFFFFFFFCB
:10373000FFF7FFFFFFFFFFFFFFFFFFFFDFFFDFFFE1
:10374000FFFFFFFFDFFFDFFFFFFFDFFFDFFFBFFF49
:10375000BFFFDFFFBFFFFFFFFFFFFFFFFFFFFFFF19
:10376000DFF7FFFFFFFFFFFFDFF7FFFFFFFFFFFFB9
:10377000FFF7FFFFFFFFFFFFFEFFFEFFFFFFFFFF63
:10378000BFFFDFFFDFFFFFFFFEFF5BFFCBD2E4C029
:1037900065F885F884F0C4F0A3E8A4E884E865F04F
:1037A00086F884E8C5E8A4E884F085D8E9C179FE04
:1037B000FFF7FFF7FEEFFFF7FFFFDFFFFFFFFFFF62
:1037C000FFFFFFFFFFFFDFFFDFFFFFFFFFFFFFFF49
:1037D000FFFFFFFFFFFFDFFFDFFFFFFFFFFFFFFF39
:1037E000FFFFDFFFBFFFFFFFFFF7FEEFFFFFBEFFA3
:1037F000CEFAA5C8E5D8A4E0A3E8A3E0A4E0A5E834
:1038000065E8A5F0A4F0A3E863E085F086F004D8AD
:103810004ECB5CFFFEFFFFF7DEEFFFFFDFFFFFFF9A
:10382000FFFFFFFFFFFFFFFFFFFFFFFFFFFFDFFFC8
:10383000FFF7FFF7FFFFDFF7FFFFFFFFFFFFDFFFF0
:10384000FFFFDFFFFFFFFFFFFFFFDFFFFFFFFFFFC8
:10385000FFFFBEF7FFFFFFFFBEF7FFFFFFFFDFFF2A
:10386000FFFFFFFFDFFFFFFFFFFFDFF7FFF7FFFFB8
:10387000DFFFDFFFFFFFFFFFFFF7FFFFFFFFFFFFA0
:10388000FFFFFFFFFFFFDFF7FFF7FEFF7CFFAFDB70
:1038900025E045E8C5F863E083E0A4E8A5F085F0FD
:1038A000C5E8A4E084E0A4E8A4E8C5E085C86CFA13
:1038B000DFFFDEFFFFF7FEEFFFFFFFFFDFFFFFFF92
:1038C000FFFFFFFFFFFFDFFFDFFFFFFFFFFFFFFF48
:1038D000FFFFFFFFFFFFDFFFDFFFFFFFFFFFFFFF38
:1038E000DFFFDFFFDFFFFFFFFFF7DEF79EFF36F5AD
:1038F00003E0E6F063D8A4E0E5E0C4E0C4E0A4E8B7
:10390000A4F084E8A4E0C4E8A5E8A5E885D0EEFA30
:10391000BFFF9EFFFFFFFFF7FFF7FFFFFFFFDFFF88
:10392000FFFFFFFFFFFFFFFFFFFFFFFFDFFFBFFF07
:10393000FFFFFFFFFFFFFFFFFFFFFFFFFFFFDFFFB7
:10394000FFFFFFFFFFFFDEF7FFFFFFFFFFF7FFF7C0
:10395000FFF7FFF7FFFFFFFFFFFFFFFFFFFFFFFF87
:10396000FFFFFFFFDFFFFFFFFFFFFFFFFFFFFFFF87
:10397000BFFFDFFFFFFFFFFFFFFFFFFFFFFFFFFFB7
:10398000FFFFFFFFFFF7FFF7FFF7FFFF9EFFBFFF00
:103990002FFB85C885E0C5E8A4E0C4E8A4E884F06E
:1039A00083E0E5E0C4E0A4E0C5E884E0A5F003E03E
:1039B000F5EC9EFFDEFFFFF7FEF7DFFFDFFFDFFF27
:1039C000FFFFFFFFFFFFDFFFDFFFFFFFFFFFFFFF47
:1039D000FFFFFFFFFFFFFFFFFFFFFFFFFFFFFFFFF7
:1039E000DFFFDFFFFFFFFFF7FEF7DEFF5BFEABC190
:1039F00084F043E8A5F8A5E8A4D805D9E5E863F084
:103A0000A4F083E0E4E0A4E0E6E8A5C00DDB3CFF21
:103A1000FFFFFFFFDFFFDEF7FFF7FFF7FEF7FFFF18
:103A2000DFFFFFFFFFF7FFF7FFFFDFFFDFFFBFFF56
:103A30006D730842074238C6FFFFFFFFD294E73993
:103A4000084214A5FFFFFFFFFFFFFFFFFFF7FFF78F
:103A50002C530732283A1CDFFFFFAA52C739B29411
:103A6000FFFFAE732842CE7BDFFF718CC6390C633B
:103A7000BFFFDFFFFFFFFFFFFFFFFFFFFFFFDFFFD6
:103A8000DFFFDEFFFEEFFFEFFEF7DFFFFFFFFFF7D9
:103A90003DFF90EBA5C0E6E0C5E0A3E0A3E883F01E
:103AA00083F0C4E805E1C5D884E8A5F864F064F0C3
:103AB00049B95BFEBEFFFEF7FEF7DFFFDFFFDFFF6A
:103AC000FFFFFFFFFFFFFFFFFFFFFFFFFFFFFFFF06
:103AD000FFFFFFFFFFFFFFFFFFFFFFFFFFF7FFFFFE
:103AE000FFFFDFFFFFFFFEF7FEFF1DFF51F307D0D3
:103AF000E3E8A4F044F0A5F084E0A4E083E883F0D8
:103B000082F0C4F0C5F0A5E0C6C88BCA5CFFFDFF1B
:103B1000DFF7FFFFBFFFDFFFFFFFFFFFFFFFFFFF3D
:103B2000FFFFFFFFFFFFFFFFFFFFFFFFFFFFDFFFC5
:103B3000A74100000000F7BDFFFFFFFFAE6B0000D4
:103B400000003084FFFFDFFFDFFFFFFFFFFFFFFF0D
:103B50004521000000009AD6DFFFA21800000F8464
:103B6000FFFFC21000004421FFFF0C630000042986
:103B7000DFFFFFFFFFFFFFFFFFFFFFFFFFFFFFFF75
:103B8000FFFFFFFFFFFFFFFFFFFFBFFFFFFFFFF78D
:103B9000DDFF5DFF4EDB85C0A5E0E4F082E8A2F822
:103BA00083F883E8A4E064E085F044F084F0C4E89E
:103BB00006D88EE27EFFBDEFFFF7FFFF9FFFDFFF1E
:103BC000FFFFFFF7FFFFFFFFFFFFFFFFFFFFFFFF0D
:103BD000FFFFFFFFFFFFFFFFFFFFFFF7FFF7FFFF05
:103BE000FFFFDFFFFFFFFEF7FEFFF8FD87B849F894
:103BF000E2D8C3E084F065F0A6F885F0A4F0A2F066
:103C0000A2F862F064F085D80ADADBFEFDFFFDE77A
:103C1000FFFFBEFFFFFFDFFFBFFFBFFFFFFFFFF79D
:103C2000FFF7FFFFFFFFFFFFFFFFFFF7FFF7FFFFBC
:103C3000085200080000F7BDFFFFFFFFCE73200011
:103C40002000518CFFFFBFFFFFFFFFFFBFFFDFFF23
:103C5000863100002008BBDEDFFFA3200008508C67
:103C60007DEF000020004000DEFF6D73200824314E
:103C7000FFF7FFFFFFFFFFFFFFFFFFFFFFFFFFFF5C
:103C8000FFF7FFFFBFFF9FFFDFFFFFFFDFFFDFFF4C
:103C9000FEE7FEFF1CFF8CE264D8C4F841F0C2F8D6
:103CA000A2F083E884F086F845F085F0A3E0E3E035
:103CB00028F887C035EDFEFFFFF7DFFFDFFFBFFF0E
:103CC000FFFFFFF7FFF7FFFFFFFFFFFFFFFFFFFF14
:103CD000FFFFFFFFDFFFFFFFFFF7FFF7FFFFDFFF44
:103CE000FEFFFEF7FEEFBFFFBEFEAAD984E0A3F001
:103CF000E5D8A4E0A4F0A4E8A4E865F044F8A4F0B2
:103D0000C2E0C4E885E869C15EFFFFDFFFEF7FFF27
:103D1000FFFFFFFFFFFFFFFFFFFFFFFFFFFFFFFFB3
:103D2000FFFFFFFFFFFFFFFFFFFFFFFFDFFFFFFFC3
:103D300008422000000018C6DFFFFFFFCF7B000015
:103D40000000518CFFFFBEF7FFFFFFFFFFFFFFFFEB
:103D5000A63100000000BAD6FFFFE3180000B294BD
:103D6000F7BD0000200000009AD6CF7B0000452957
:103D7000FFFFFFFFFFFFFFFFFFFFFFFFFFFFFFFF53
:103D8000FFFFFFFFFFFFFFFFFFFFFFFFFFFFFFFF43
:103D9000BFFFFFEFFFD77FFFCAB985D8C4E8C3E0F4
:103DA00083E844F865F884E8A4E8C4E884E8A4E07B
:103DB000A2E8A4E068D97CFEBFFFFFF7FFEFFFFF9A
:103DC000FEFFFEFFFEFFFFFFDFFFDFFFFFFFFFF74E
:103DD000FFFFFFFFFFFFFFFFFFFFFFF7FFFFDFFF1B
:103DE000BEFFFFFFFFEFDFFF34FC66C8A5E8A3E8D6
:103DF000A4E0C4E0C4E864E885F885F0A4E8A3E89A
:103E0000C4F063E8E6C819FEBEFFFFEFFFFFBFFF87
:103E1000FFFFFFFFFFFFFFFFFFFFFFFFFFFFFFFFB2
:103E2000FFFFFFFFFFFFFFFFFFFFFFFFDFFFFFFFC2
:103E3000084200002000B6B5BEF7FFFF8E730000F9
:103E400020003084FFFFFFFFFFFF96B5D39CD39C7B
:103E5000E318200000009AD6FFFFE3180000B29498
:103E60009294000000000000D39CEF7B00004529E5
:103E7000FFFFFFFFFFFFFFFFFFFFFFFFFFFFFFFF52
:103E8000FFFFFFFFFFFFFFFFFFFFFFFFFFFFFFFF42
:103E90009EFFFFF7FFEFDFFF5AFE27C963E0A3E8AD
:103EA000C4E884E885F885F884E8C4E0C4E0A4E8C0
:103EB000E3E0A4E865D0D2F39FFFFFF7FFFFDFFF49
:103EC000FEFFFEFFFEF7FFFFDFFFDFFFFFFFFFF755
:103ED000FFFFFFFFFFFFFFFFFFFFFFF7FFF7FFFF02
:103EE000BFFFFFFFFEF7DCFE69C145E085F0C3D8E8
:103EF00084F0E5E8C4E044F065F884E8E4D8C4E080
:103F000085F824D0B3FCDEFFFFFFDFFFDFFFFFFFFC
:103F1000FFFFFFFFFFFFFFFFFFFFFFFFFFFFFFFFB1
:103F2000FFFFFFFFFFFFFFFFFFFFFFFFDFFFFFFFC1
:103F3000494A00000000A210E318C31841082000FD
:103F400000003084FFFFDBDE652900000000000078
:103F5000000020000000BAD6FFFFE3180000518CDB
:103F6000CB5A0000A63100004D6BCF7B00006529C5
:103F7000FFFFFFFFFFFFFFFFFFFFFFFFFFFFFFFF51
:103F8000FFFFFFFFFFFFFFFFFFFFFFFFFFFFFFFF41
:103F9000FFFFFFFFFFFFFFFFBEFFF5FC64C8A5F0BA
:103FA000C4E8A3D884E885F884F0A4E0E4E884F0C9
:103FB00003D9A4F025E828C17BFEFFFFFFFFDFFF48
:103FC000FFFFFFF7FFFFFFFFDFFFFFFFFFFFFFF731
:103FD000FFFFFFFFFFFFFFFFFFFFFFFFFFFFFFFFF1
:103FE000DFFFBFFFBFFF11DC65C0A6F864E8E4D8BF
:103FF00084F8A4E8A4E064F085F883E804E1C4E070
:1040000024D070FB7DFFFDEFFEF7BFFFDFFFFFF762
:10401000FFFFFFFFFFFFFFFFFFFFFFFFFFFFFFFFB0
:10402000FFFFFFFFFFFFFFFFFFFFFFFFDFFFFFFFC0
:10403000E739000020000000000020000000000020
:1040400000009294DFFFAA520000200000006108E7
:10405000000000000000BAD6FFFFC3180000AE73D6
:1040600065292000518C0000E7394D6B000045297F
:10407000FFFFFFFFFFFFFFFFFFFFFFFFFFFFFFFF50
:10408000FFFFFFFFFFFFFFFFFFFFFFFFFFFFFFFF40
:10409000FFFFDFFFDFFFFEFFDDF79DFFB0FB44D03A
:1040A000A4E8C4E8A4E884E8A4E8A4E0C4E883F0B1
:1040B00003D184F086F866C8B0DBBEFF9EFFFFFF29
:1040C000FFFFFFFFFFFFFFFFFFFFFFFFFFFFFFFF00
:1040D000FFFFFFFFFFFFFFFFFFF7FFFFFFFFFFFFF8
:1040E000FFFFBFFF5BFE27B9A5E864F064E8C5E801
:1040F00084F864F0A5E8A4E0C4E8A3F0A4F064D8D0
:104100000AD2FCFEFEFFFEFFDDFFFFFFFFFFFFF711
:10411000FFFFFFFFFFFFFFFFFFFFFFFFFFFFFFFFAF
:10412000FFFFFFFFFFFFFFFFFFFFFFFFDFFFFFFFBF
:104130000842000000006108A210821061082000FF
:104140000000518CFFFF821041082000D39CBAD69A
:104150002421000000009AD6FFFFA2102000CB5AB5
:104160006108E318BAD6821082108A5200004529ED
:10417000FFFFFFFFFFFFFFFFFFFFFFFFFFFFFFFF4F
:10418000FFFFFFFFFFFFFFFFFFFFFFFFFFFFFFFF3F
:10419000FFF7DFFFDFFFDEFFFEFFDEFF5DFF4BD23D
:1041A00064D864F8C4F0A3D8E5E0A4E0A4F063F018
:1041B000C4E0A4E844F086E8E6C019FEDEFFFFF79D
:1041C000FFFFDFFFFFFFFFFFFFFFFFFFFFFFFFFF1F
:1041D000FFFFFFFFFFFFFFF7FFF7FFFFDFFFFFFF1F
:1041E000FFEFBFFF50EB24D8C5F883E0A4E885F8C3
:1041F00084E884F885F0C4E0C3D8A3F044F0E6C8AE
:10420000F8FDFEFFFFFFFEFFFEFFFEFFFFF7DFFFF3
:10421000FFFFFFFFFFFFFFFFFFFFFFFFFFFFFFFFAE
:10422000FFFFFFFFFFFFFFFFFFFFFFFFDFFFFFFFBE
:10423000E73920000000B6B55DEF9EF74D6B00003A
:104240000000718CFFFF410800000421FFFFFFFF09
:10425000C739000000009AD6FFFFA21000004529D0
:104260000000E739FFFF45290000452900004529E6
:10427000FFFFFFFFFFFFFFFFFFFFFFFFFFFFFFFF4E
:10428000FFFFFFFFFFFFFFFFFFFFFFFFFFFFFFFF3E
:10429000FFFFFFFFFEFFDEFFDEFFFFF7FFFF19FE60
:1042A00027D123E883F0C3D805D9A4E084F084F0B3
:1042B00084F0C5E884E065F824E0CDE2BEFFFFEFBE
:1042C000FFFFBFFFDFFFFFF7FFF7FFFFFFFFFFFF6E
:1042D000FFFFFFFFFFFFFFF7FFEFFFFFBFFFFFFF46
:1042E000FFF75AFEC7C845F884F8E3D8C4E844F895
:1042F000A4E0A5F084F0A4E0A3E083E8C5D8D0EB67
:10430000DFFFFFF7DFFFBFFFFEFFFEF7FFFFBFFF8F
:10431000FFFFFFFFFFFFFFFFFFFFFFFFFFFFFFFFAD
:10432000FFFFFFFFFFFFFFFFFFFFFFFFDFFFFFFFBD
:10433000494A00000000F7BDFFFFFFFFCF7B0000F0
:1043400020003084FFFF821000004108CF7B18C698
:10435000042100000000BAD6FFFFA21000004108AF
:1043600000006D6BFFFFCB5A0000410800000421E4
:10437000FFFFFFFFFFFFFFFFFFFFFFFFFFFFFFFF4D
:10438000FFFFFFFFFFFFFFFFFFFFFFFFFFFFFFFF3D
:10439000BFFFFFFFFFFFFEFFFFFFFFF7FFEFDFFFA6
:1043A00011F4C5D863E8A3E8C4E8A4E0A4F084F05D
:1043B00045F8C4E0E4E043F845F8A5C038FEFFFF47
:1043C000DFFFBFFFDFFFFFF7FFF7FFFFFFFFFFFF8D
:1043D000FFFFDFFFFFFFFFFFFFF7FFFFFFFFDFFF35
:1043E000BFFFB1DB65D045F883F0C3D8A4E844F83B
:1043F00085E0C5E883E0A4F084F8A4D809C25DFF95
:10440000DFFFFFFFDFFFDFFFFFFFFFFFDFFF9FFF9C
:10441000FFFFFFFFFFFFFFFFFFFFFFFFFFFFFFFFAC
:10442000FFFFFFFFFFFFFFFFFFFFFFFFDFFFFFFFBC
:10443000084200000000F7BDDFFFFFFFCF7B000058
:104440000000518CDFFF8A520000000020000000B5
:10445000000000000000DBDEDFFFA21020002000D3
:10446000200014A5DFFFB2940000410800002421C1
:10447000FFFFFFFFFFFFFFFFFFFFFFFFFFFFFFFF4C
:10448000FFFFFFFFFFFFFFFFFFFFFFFFFFFFFFFF3C
:10449000FFFFDFF7FFFFFEFFFFFFFFFFDFF7FFFF7D
:1044A0007EFF29CA84E064F883F0A3E0C4E864F0E6
:1044B00045F8A4E8A3D8A4F823F885D82DCBBFFFEE
:1044C000DFFFDFFFFFFFFFF7FFFFFFFFFFFFFFFF44
:1044D000FFFFDFFFFFFFFEFFDEFFFFF7FFF7BFFF7E
:1044E0005BFE07C1A6E0A5F0A3E883E8A4F084F88A
:1044F00085E8C4E0C4E083F884F884B8F7FDFFFFE2
:10450000FFFFDFFFDFFFFFFFFFFFFFFFDFFFDFFF3B
:10451000FFFFFFFFFFFFFFFFFFFFFFFFFFFFFFFFAB
:10452000FFFFFFFFFFFFFFFFFFFFFFFFFFFFFFFF9B
:10453000C73900000000B6B5FFFFFFFF6D6B00003C
:1045400000001084FFFFDBDE863100002000000049
:104550000000000000009AD6FFFF41082000000084
:1045600000009AD6DFFF38C6000000002000C31804
:10457000FFFFFFFFFFFFFFFFFFFFFFFFFFFFFFFF4B
:10458000FFFFFFFFFFFFFFFFFFFFFFFFFFFFFFFF3B
:10459000FFFFFFFFFFFFFFFFFFFFFFFFFFFFFFF733
:1045A000FFFFF8FDC5C844F883F8C3E884E065F070
:1045B00065F064E8C3E8A3E883F0C5E806B91AFE2D
:1045C0009FFFFFF7FFF7FFFFFFFFFFFFFFFFFFFF6B
:1045D000DFFFFFFFFFFFDEFFDFFFFFF7FFE7BFFFAC
:1045E000B2FB45D884E0C3D8C4E084F084F0A3E8EB
:1045F00065F0A5E8C4E883F043D82EEB7DFFFFF714
:10460000FFFFDFFFFFFFFFFFFFFFDFFFDFFFFFFF1A
:10461000FFFFFFFFFFFFFFFFFFFFFFFFFFFFFFFFAA
:10462000FFFFFFFFFFFFFFFFFFFFFFFFFFFFFFFF9A
:104630009AD6D7BDF7BD9EF7FFFFFFFFDBDEF7BDC4
:1046400018C61CE7FFFFFFFFBEF759CED7BD38C61F
:10465000F7BD18C618C67DEFFFFF38C618C6D7BD10
:10466000F7BDFFFFFFFFFFFF18C6D7BD18C638C64E
:10467000FFFFFFFFFFFFFFFFFFFFFFFFFFFFFFFF4A
:10468000FFFFFFFFFFFFFFFFFFFFFFFFFFFFFFFF3A
:10469000FFF7FFFFFFFFFFFFFFFFFFFFFFF7FFF742
:1046A000DFFF5EFF8FF343D0A4F0A3F0A5F065F029
:1046B000A5E864F083F0C2E0C2D8A4E845D850FB76
:1046C0009FFFFFEFFFF7DFFFDFFFFFFFFFFFFFFFB2
:1046D000DFFFFFFFFFFFDEFFBFFFFFF7FFEFFDFE86
:1046E00069D904F0A4E8E3D0E4D885F863F0A3E83E
:1046F00085E864F043F883E866C139FEBFFFDFFF59
:10470000FFFFFFFFFFF7FFFFDFFFDFFFFFFFFFF709
:10471000FFFFFFFFFFFFFFFFFFFFFFFFFFFFFFFFA9
:10472000FFFFFFFFFFFFFFFFFFFFFFFFFFFFFFFF99
:10473000FFFFFFFFFFFFDFFFFFFFFFFFFFFFFFFFA9
:10474000DFFFFFFFFFFFBEF7FFFFFFFFFFFFFFFFE2
:10475000FFFFFFFFFFFFFFFFFFFFFFFFDFFFFFFF89
:10476000FFFFFFFFFFFFFFFFFFFFDFFFFFFFFFFF79
:10477000FFFFFFFFFFFFFFFFFFFFFFFFFFFFFFFF49
:10478000FFFFFFFFFFFFFFFFFFFFFFFFFFFFFFFF39
:10479000FEF7FFFFDFFFBFFFFFFFFFF7FFF7FFFFA2
:1047A000DFFF9FFF7AFEA7B9C4E063F864F0A5E8D5
:1047B000A5E884F883F003D902D1A4E825F008D154
:1047C000DCFEFFF7FFF7BFFFDFFFFFF7FFFFDFFFB5
:1047D000DFFFFFFFFFF7FFFFBFFFDFFFDFFF15F585
:1047E00085C844F8A4F8E3D8C4D8A4F064F0A4E8D9
:1047F000C5E044F844F863D010E4BEFFBFFFBFFF3C
:10480000DFFFFFFFFFF7FFFFFFFFFFFFFFFFFFF7E8
:10481000FFFFFFFFFFFFFFFFFFFFFFFFFFFFFFFFA8
:10482000FFFFFFFFFFFFFFFFFFFFFFFFFFFFFFFF98
:10483000DFFFFFFFFFFFFFFFFFFFFFFFFFFFFFFFA8
:10484000FFFFFFFFFFFFFFFF9EF7BEF7FFFFDFFF4A
:10485000DFFFFFFFDFFFFFFFFFFFDFFFFFFFFFFFC8
:10486000DFFFFFFFFFFFDFFFDFFFFFFFFFFFDFFFD8
:10487000FFFFFFFFFFFFFFFFFFFFFFFFFFFFFFFF48
:10488000FFFFFFFFFFFFFFFFFFFFFFFFFFFFFFFF38
:10489000FEF7FFFFDFFFDFFFFFFFFFF7FFF7DFFFA1
:1048A000DFFF9FFFBEFF71E483C085F843F0C5E0E2
:1048B00084E884F0A4E803D9E3D0A4F045F865D0F7
:1048C00093F4DEFFDFFFDFFFFFFFFFF7FFFFBFFF18
:1048D000FFFFFFFFFFFFFFFFBFFFBFFF5EFF8CCAB1
:1048E00084D064F883F0C3E8A4E0A4E8A4E8A4E8D2
:1048F000C4D884F845F827D1BAFEFEF7FFFFBFFF02
:10490000DFFFFFFFFFFFFFFFFFFFFFFFFFFFFFFFD7
:10491000FFFFFFFFFFFFFFFFFFFFFFFFFFFFFFFFA7
:10492000FFFFFFFFFFFFFFFFFFFFFFFFFFFFFFFF97
:10493000FFFFFFFFFFFFFFFFFFFFDFFFDFFFFFFFC7
:10494000FFFFFFFFDFFFFFFFFFFFFFFFFFFFFFFF97
:10495000FFFFFFFFFFFFFFFFDFFFFFFFFFFFFFFF87
:10496000FFFFFFFFFFFFFFFFDFFFFFFFDFFFFFFF97
:10497000FFFFFFFFFFFFFFFFFFFFFFFFFFFFFFFF47
:10498000FFFFFFFFFFFFFFFFFFFFFFFFFFFFFFFF37
:10499000FFFFFFFFDFFFFFFFFFFFFFFFFFFFBFFF87
:1049A000DFFFFFF7FFFFFBFE47C1A5E884E8C4D89F
:1049B00084F084F0C4E8C3D8C3E084F044F885E010
:1049C0002ACA1CFFDFFFFFFFFFFFFFFFFFFFDFFF24
:1049D000FEFFFEFFFFFFFFF7FFF7BFFFD8FDC5C0DB
:1049E000C5E083E863E8A4F084F084E8A5E8A5E8DE
:1049F000C3E0A4E824C8D1FB9EFFFEEFFFEFFFFF5A
:104A0000DFFFDFFFFFFFFFFFFFFFFFFFFFFFFFFFF6
:104A1000FFFFFFFFFFFFFFFFFFFFFFFFFFFFFFFFA6
:104A2000FFFFFFFFFFFFFFFFFFFFFFFFFFFFFFFF96
:104A3000FFFFFFFFFFFFDFFFFFFFFFFFFFFFFFFFA6
:104A4000DFFFFFFFFFFFDFFFFFFFFFFFFFFFDFFFD6
:104A5000FFFFDFFFFFFFFFFFFFFFFFFFFFFFFFFF86
:104A6000FFFFFFFFFFFFFFFFFFFFFFFFDFFFFFFF76
:104A7000FFFFFFFFFFFFFFFFFFFFFFFFFFFFFFFF46
:104A8000FFFFFFFFFFFFFFFFFFFFFFFFFFFFFFFF36
:104A9000FFFFFFFFFFFFFFFFFFFFFFFFDFFFDFFF66
:104AA000FFFFFFEFFFF79FFF33FC64C0E4E8C3E0C4
:104AB000A4E8A4E8A4E884E8A4F0A4F043E8A5E806
:104AC000A5C077FDBEFFFFF7FFF7FFFFDFFFFFFF8A
:104AD000FDF7FFFFDFFFFFF7FFEF9EFF90F343D0EF
:104AE000C5E8C4E0C3E083F864F864F0A5E8C5D87D
:104AF000C2F0C3D087B99CFE9FFFFFF7FFEFFFF71F
:104B0000FFFFDFFFDFFFFFFFFFFFFFFFFFFFFFFFF5
:104B1000FFFFFFFFFFFFFFFFFFFFFFFFFFFFFFFFA5
:104B2000FFFFFFFFFFFFFFFFFFFFFFFFFFFFFFFF95
:104B3000FFFFFFFFFFFFDFFFFFFFDFFFFFFFFFFFC5
:104B4000FFFFDFFFFFFFFFFFFFFFFFFFFFFFFFFF95
:104B5000FFFFFFFFFFFFFFFFFFFFDFFFFFFFDFFFA5
:104B6000FFFFFFFFFFFFFFFFFFFFFFFFFFFFFFFF55
:104B7000FFFFFFFFFFFFFFFFFFFFFFFFFFFFFFFF45
:104B8000FFFFFFFFFFFFFFFFFFFFFFFFFFFFFFFF35
:104B9000FFF7FFFFFFFFFFFFFFFFFFFFFFFFFFFF2D
:104BA000FFF7FFEFFFFF9FFFDDFEA8B9C3D8A2F01C
:104BB000C4E0A4E864F064F884F0C4E8A3E0A5F0DD
:104BC00024D82EF39DFFFFEFFFEFDFFFDFFFFFF79E
:104BD000FDEFFFFFBFFFFFF7FFEF7DFFC9C944E80F
:104BE00064E8E4D8E4E043F044F844F885E0E6D82B
:104BF00081F8C3C0F0E37FFF7FFFFFFFFEEFFFEF11
:104C0000FFF7FFFFDFFFDFFFDFFFDFFFFFFFFFF744
:104C1000FFFFFFFFFFFFFFFFFFFFFFFFFFFFFFFFA4
:104C2000FFFFFFFFFFFFFFFFFFFFFFFFFFFFFFFF94
:104C3000DFFFFFFFFFFFFFFFFFFFFFFFFFFFFFFFA4
:104C4000FFFFFFFFFFFFFFFFFFFFFFFFFFFFFFFF74
:104C5000FFFFFFFFFFFFFFFFFFFFFFFFFFFFFFFF64
:104C6000FFFFFFFFFFFFFFFFFFFFBEF7FFFFFFFF9D
:104C7000FFFFFFFFFFFFFFFFFFFFFFFFFFFFFFFF44
:104C8000FFFFFFFFFFFFFFFFFFFFFFFFFFFFFFFF34
:104C9000FFF7FFF7FFFFDFFFDFFFFFFFFFF7FFF784
:104CA000FEEFFFFFDFFFBFFF7FFF51F482C882F8F6
:104CB000C3D0C4E844F845F864F0C4D8E4E064F82C
:104CC00045F848C17DFFFFE7FFEFBFFFDFFFFFF7BC
:104CD000FFFFFFFFFFFFFEFF9EFF76FD83C084F80E
:104CE00064F885E8A5D8E5E0A3E8A3F0A4F0A5E082
:104CF00046F006B9DAFEFEFFFFF7FFFFDFFFFFFF1A
:104D0000FFF7FFFFDFFFDFFFDFFFFFFFFFFFDFFF3B
:104D1000FFFFFFFFFFFF5DEFD7BD92948E73AA5296
:104D2000494A494A694ACB5A8E73929418C69EF7EB
:104D3000FFFFFFFFFFFFFFFFDFFFFFFFDFFFFFFFC3
:104D4000FFFFFFFFFFFFFFFFFFFFFFFFFFFFFFFF73
:104D5000DFFFFFFFFFFFFFFFFFFFDFFFFFFFFFFFA3
:104D6000FFFFFFFFDFFFFFFFFFFFFFFFDFFF79CE4A
:104D7000F39CEF7BEB5A694A494A494AAA522C6391
:104D8000308434A5DBDEBEF7FFFFFFFFFFFFDFFF50
:104D9000FFFFFFFFDEFFFFFFBEFFDFFFFFFFFFF7AD
:104DA000FFFFDFFFFFFFFEEFFEFF1BFF47B966F0CF
:104DB00085E0A4E882E8A3E8C5E865E0A5F084F80A
:104DC00083F0C4C8D3FC7EFFFEFFFFFFFFFFFFFFA1
:104DD000FFFFFFFFFFFFFFFF9EFFAFE363C0A4F8ED
:104DE00064F885E8C5E0C5E0A3F082F063E8A5E8D3
:104DF00045D80DEB5BFFFEFFFFF7FFFFDFFFFFFF77
:104E0000FFF7FFFFDFFFDFFFFFFFDEFFDFF7FFFF43
:104E10007DEFD39C284282100000000000000000BB
:104E200000000000000000000000000000008210F0
:104E3000CB5AD7BDFFFFFFFFFFFFFFFFFFFFFFFFC5
:104E4000FFFFFFFFFFFFFFFFFFFFFFFFFFFFFFFF72
:104E5000FFFFDFFFFFFFFFFFFFFFFFFFFFFFFFFF82
:104E6000FFFFDFFFFFFFDFFF79CE8E73042100001D
:104E70000000000000000000000000000000000032
:104E80000000000020004529AE7359CEDFFFFFFF70
:104E9000BFF7BEF7FFFFDEFFDFFFFFFFFFF7FFF704
:104EA000FFFFDFFFFFFFFFF7FEF77CFF4EEB65D84C
:104EB000A6F0A4E8A3F0C3E8C5E885E085F063F0B8
:104EC00083F0A4C82DDB7EFFFFFFFFF7FFFFFFFF8E
:104ED000FFFFFFFFFFF7DFFF1CFFC8C184D0A4F076
:104EE00084F0A5E8E6E8A4E0A3E8A3F063E8A5E879
:104EF000C6C076FDBDFFFEFFFFF7DFFFDFFFFFFF50
:104F0000FFF7FFF7FFFFDEFFDEFFFFFFFFFFB39CB2
:104F1000E318000000002000200000000000000056
:104F200000000000200020004108200000002000B8
:104F300000000000E73959CEFFFFDFFFFFFFDFFF72
:104F4000FFFFFFFFFFFFFFFFFFFFFFFFFFFFFFFF71
:104F5000FFFFFFFFFFFFFFFFDFFFFFFFFFFFDFFFA1
:104F6000DFFFFFFFDBDECB5A000000000000200067
:104F700000002000200000000000200020000000B1
:104F80000000000000000000000000008A5238C647
:104F9000FFFFFFFFDEF7DFFFFFFFFFFFFFFFFFF772
:104FA000FFFFBFFFDFFFFFFFFEF7DDFFB7FDE6C03E
:104FB00085F064E883E8A3E8A4E8A5E885E863F061
:104FC000A4F0A4D867C1BBFEDFFFFFF7FFF7DFFF48
:104FD000DFFFFFF7FFEFBFFF77FDC5C0C5E884F037
:104FE00084F085E8A5E8A3E0A3E8A3F0A4F064E8D2
:104FF0002AC2FCFEFEFFFEF7FFFFDFFFDFFFFFFF21
:10500000FFFFFFFFDFFFDEFFFFFF1CDFC7390000F0
:105010002000000000000000000000000000000070
:105020000000000000000000000000000000000080
:105030002000200000002000B2949EF7FFFFFFFF39
:10504000FFFFFFFFFFFFFFFFFFFFFFFFFFFFFFFF70
:10505000FFFFFFFF9EF7FFFFFFFFFFFFFFFFFFFFC9
:10506000FFFF14A5610800000000410800000000D7
:105070000000000020000000000000000000000010
:1050800000002000000000002000000000002000C0
:10509000F083DFFFFFFFFFFFFFFFDEFFFFFFFFFFEC
:1050A000FFFFBFFFDFFFFFFFFEF7FEFF5DFF8BC2CD
:1050B00044E884F083E8A3E8A4E0A5E8A5E8A4F028
:1050C00084E8C5E8A5C036FDBEFFFFEFFFF7DFFFB0
:1050D000BFFFFFF7FFEFBFFF70EB44D0C5F084E8E0
:1050E000A4E8A4E884E8C3E8A3E8A4F0A5F003D802
:1050F00092DCBDFFFEFFFEF7FFFFBFFFBFFFFFFF1C
:10510000FFF7FFFFDFFFFFFF38C6C20820000108DE
:10511000000000000000000000002000200000004F
:10512000000000000000000000002000000000005F
:1051300000000000000000000000EF7BDFFFDFFF49
:10514000FFFFDFFFFFFFFFFFFFFFFFFFFFFFFFFF8F
:10515000FFFFFFFFFFFFFFFFFFFFDFFFFFFFFFFF7F
:10516000108400002000000000000000200000006B
:10517000000000000000000000000000000000002F
:10518000000000000000000000000000000000001F
:1051900021088A52FFFFFFF7FFFFFFFFDEFFFFFF3F
:1051A000FFFFDFFFDFFFFFFFFEF7FEFFBDFFF3E4C2
:1051B00044E0A5F0A4F0A3E8C4E8A4E8A4E8A5E8C6
:1051C00084E884F064D02EE3BFFFFFEFFFF7DFFF3A
:1051D000BFFFFFF7FFF77EFFEAD944E864F0A4E8D9
:1051E000A5E8A4F063E8C3F0A3E8A4E884E084E0C1
:1051F000BAFEFEFFFEF7FFF7FFFFBFFFDFFFFFFF77
:10520000FFFFDEF7FFFFBAD6E3102000000000002A
:10521000000000000000000000000000000000008E
:10522000000000000000000000000000000000007E
:10523000000020000000000000000000CF7BFFFF06
:10524000FFFFFFFFFFFFFFFFFFFFFFFFFFFFFFFF6E
:10525000DFFFFFFFFFFFFFFFDFFFDFFFFFFF308408
:1052600020000000000020000000000000000000FE
:10527000200000000000000000000000000000000E
:1052800000000000000000000000000020000000FE
:1052900000000000AA4AFEF7FFFFFFFFFFFFFFFF2D
:1052A000FFFFDFFFBFFFFFFFFFF7FEF7DEFFFBFEA5
:1052B000E5E085E084F0A3E8E4E8A3E0A4E8A5E85D
:1052C000A5F064F064E8A9C95EFFFFF7FFF7DFFF10
:1052D000BFFFFFF7FFF75AFEE6C844F843F0A5E822
:1052E000A5E0C5F083E8C3F0A4E8A5E864D02AFAF5
:1052F000DEFFFFFFFFF7FFFFFFFFDFFFFFFFFFFF07
:10530000DEF7FFFF9DF74429000061000000000068
:10531000000000000000000000000000000020006D
:10532000000000000000000000000000000000007D
:10533000000000000000000020000000200055AD2B
:10534000BEF7FFFFFFFFFFFFFFFFFFFFFFFFFFFFB6
:10535000FFFFFFFFDFFFDFFFDFFFFFFF75AD000097
:1053600000004108000000000000000000000000F4
:10537000000000000000000000000000000000002D
:10538000000000000000000000000000000000001D
:10539000000021004000AE6BFFFFBEFFFFFFFFFFDC
:1053A000FFFFFFFFDFFFFFFFFFFFFFF7FFFFFEFF36
:1053B0008BFA64D085F083E8C3E8A3E8A4E8A5E805
:1053C000A5F063F084F0E5C019FEFFFFFFF7DFFFF3
:1053D000BFFFDFF7DFFFF5F464C863F883F8A5E8E3
:1053E00085E0A5F0A3F0A2E884F0C6E884C010FC34
:1053F000FFFFFFF7FFFFFFFFBFFFFFFFFFFFFFF70D
:10540000FFFFDEFFAE7B0000200000002100000057
:10541000000000000000000000000000000000008C
:10542000000000000000000000000000000000007C
:105430000000000000000000000000000000610803
:105440003CE7BEF7FFFFFFFFFFFFFFFFFFFFFFFF90
:10545000FFFFFFFFFFFFFFFFFFFF3CE7A210000081
:10546000200000000000000000000000000000001C
:10547000000000000000000000000000000000002C
:1054800000002000000000000000000000000000FC
:10549000000000000000000075B5FFFFDEFFFFFF09
:1054A000FFFFFFFFFFFFFFFFFFFFFFF7FFFFFEF71D
:1054B00092FC85C0C6F084F0A2E8C3E8A4E885E8C1
:1054C00084E884F084F063C0B4F4BFFFFFFFDFFF23
:1054D000DFFFDFFFBFFF2ED384D083F863E8A5E8AA
:1054E000A5F084E882E8A3F084F0A5E805B918FEE9
:1054F000FFFFFFFFFFFFFFFFFFFFDFFFFFFFFFF7E4
:10550000FFFF99D600002008000000000000000006
:10551000000000000000000000000000000000008B
:10552000000020000000000020000000000000003B
:10553000000000000000000000000000000000006B
:10554000694ADFFFFFFFFFFFDFFFFFFFFFFFFFFFF6
:10555000FFFFFFFFFFFFDFFFFFFFCB5A0000200030
:10556000000000000000000000000000000000003B
:1055700000000000200000000000000020000000EB
:1055800000000000000000000000000020000000FB
:105590000000000020000000C3185DF7DEFFFFF7E9
:1055A000FFF7FFFFDFFFFFFFFFFFFFFFFFFFFFFF33
:1055B00079FE47C185E884F0C3E8A3E0A4E885F05C
:1055C00064E8A3F0A3F0A4D0CDCA9FFFDFFFDFFF04
:1055D000FFFFBFFF1EFF4BCAA4D0A3F083E8A5E8DE
:1055E00085E884F0A3E8A3F084F085D86BD23BFF74
:1055F000FFFFDFFFFFFFFFFFFFFFFFFFFFF7FFF7EB
:10560000FFF70C6300000000000000000000000035
:105610000000000000002000000000004108000021
:10562000000000000000000020000000000000005A
:10563000000000000000000000000000000000006A
:105640004108D7BDFFFFDFFFFFFFFFFFFFFFFFFFA9
:10565000FFFFDFFFFFFFDFFF9AD641084108000090
:10566000000000002000000000000000000000001A
:1056700020000000000000002000000000002000CA
:1056800000000000000000002000000000002000DA
:10569000000021000000000000084D73FFFFFFF72D
:1056A000FFF7FFF7FFFFFFFFFFFFFFFFFFFFDFFF3A
:1056B0007CFFACD265D884F0C3E8C3E0A4F065F009
:1056C00084E8A3E8A3E8A4D0C9C1FDFEBFFFFFFFA3
:1056D000FFFFBFFF1AFE27B9C4D8A2E8C3E8A4E8B9
:1056E00065F085F0A3E8A3E884F044C811ECDDFF81
:1056F000DFFFBFFFDFFFFFFFFFFFFFFFFFF7FFF74A
:10570000FBD6410800080000000000000000000077
:105710000000000020002000000000000000000049
:105720000000000000000000000000000000000079
:105730000000000000000000000000000000000069
:1057400000002842FFFFDFFFFFFFFFFFFFFFFFFF1B
:10575000FFFFFFFFFFFFFFFFEB5A0000000000000C
:1057600000000000200000002000000000000000F9
:105770000000000020008210C73908420421000008
:1057800020002000000020000000000000000000B9
:10579000000000000000000000004110DADEFFFF02
:1057A000FFF7FFF7FFFFFFFFFFFFFFFFDFFFBFFF79
:1057B000FEFF72F444C884F0C3E8C3E0A5E885F0B6
:1057C00084F0C3E8C3E0C4D8E6B8D9FD9EFFFFFF6C
:1057D000FEEF9FFFF6FC85C0E5E8C3E0C3E084F080
:1057E00085F0A5F0A4E883E8A5F864C097FDFEFF66
:1057F000BFFFBFFFDFFFFFFFFFFFFFF7FFF7FFFF69
:1058000051840000000000080000000000000000BB
:1058100020000000000000000000410800002000FF
:105820004529E7394529000000000000000000007C
:105830000000000000000000000000000000000068
:10584000410800009AD6DFFFDFFFFFFFDFFFFFFF09
:10585000FFFFFFFFFFFFFBDE8210200000000000C3
:105860000000000000000000200000000000000018
:105870000000410810847DEFFFFFDFFFBEF755AD4C
:10588000A2100000200020000000200020000000E6
:105890000000000020000000000800008E73FFFFE1
:1058A000FFF7FFF7FFFFFFFFFFFFFFFFDFFFBFFF78
:1058B000FFF7F8FDA5C884F0A3E8A3E085E885F824
:1058C00084F0C3E0C3E0E5E864C074FC9FFFDEF74A
:1058D000FFE79FFFB1FB44D0C4E8C3E0C3E084F01E
:1058E00064F0A5E8A4E083E8A5F047D1DBFEFFEF74
:1058F000BFFFDFFFFFFFFFFFFFFFFFF7DFF7FFFF48
:1059000066292108000000000000000000000000DF
:10591000000000000000200020000000E318B6B5E1
:10592000BEF7FFFFFFFF75ADC318000000000000C9
:105930000000000000000000000000000000000067
:10594000200000008E73FFFFFFFFFFFFFFFFFFFF40
:10595000FFFFDFFFFFFF9294000000000000000047
:105960000000000000000000000000002000000017
:10597000000075ADFFFFFFFFFFFFFFFFFFFFDFFF31
:105980005DEFE318000000000000000000000000D0
:10599000000000004008000000000000A3105DEFC0
:1059A000FFFFFFFFFFFFFFFFFFFFFFFFDFFFDFFF47
:1059B000FFEF1CFF88D9A4E8A4E884E085E885F01F
:1059C00083E8C3E0A3E0C5F044D00FEB7FFFDEEF38
:1059D000FFE77EFF6CEA44E084E8C3E0C3E0A3F0A5
:1059E00064F0A5E8C5E084E863E04AE25DFFFFE714
:1059F000DFFFFFFFFFFFFFFFFFFFFFFFFFFFBBDE3C
:105A00000000000000000000000000000000000096
:105A100000002000000000000000C3181CE7FFFF8A
:105A2000FFFFFFFFBEF7FFFF79CE41080000000037
:105A30000000000000000000000000000000000066
:105A400000000000E318DFFFDFFFFFFFFFFFFFFFA5
:105A5000FFFFFFFFFFFF28420000200000000000C2
:105A60000000000000000000000000000000000036
:105A7000EF7BFFFFFFFFBEF7DFFFFFFFDFFFFFFF53
:105A8000FFFFBAD6410841080000000000000000F6
:105A90000000200000000000000000000000F4A44E
:105AA000FFFFFFFFFFFFFFFFFFFFFFFFFFFFFFFF06
:105AB000FFE77EFFCCEA63D8A4E8A5E0A5E884F080
:105AC00083F0C3E883E084F044E0EAD97EFFFFEF8F
:105AD000FFE7FDFE68D945F064F0A3E0C3E883F07A
